:020000040800F2
:10000000C8600020912A0008E1030008E30300080B
:10001000E5030008E7030008E9030008000000000A
:10002000000000000000000000000000290200089D
:10003000EB030008000000006D0200087D290008A5
:10004000AB2A0008AB2A0008AB2A0008AB2A00083C
:10005000AB2A0008AB2A0008AB2A0008AB2A00082C
:10006000AB2A0008AB2A0008AB2A0008AB2A00081C
:10007000AB2A0008AB2A0008AB2A0008AB2A00080C
:10008000AB2A0008AB2A0008AB2A0008AB2A0008FC
:1000900013270008AB2A0008AB2A0008AB2A000887
:1000A000AB2A0008AF230008AB2A00088321000810
:1000B0002D0900083D0900084D090008AB2A000879
:1000C000AB2A0008AB2A0008AB2A0008AB2A0008BC
:1000D000AB2A0008671C0008F71C0008BD1E0008BA
:1000E000AB2A0008AB2A0008AB2A0008AB2A00089C
:1000F000AB2A0008AB2A0008AB2A0008AB2A00088C
:10010000AB2A0008AB2A00085D090008AB2A0008EA
:10011000AB2A0008AB2A0008AB2A0008AB2A00086B
:10012000AB2A0008AB2A0008AB2A0008AB2A00085B
:1001300000F002F800F068F80AA090E8000C824491
:100140008344AAF10107DA4501D100F05DF8AFF26E
:10015000090EBAE80F0013F0010F18BFFB1A43F0A5
:10016000010318472CBF00004CBF00000A444FF0A9
:10017000000C10F8013B13F0070408BF10F8014B06
:100180001D1108BF10F8015B641E05D010F8016B4B
:10019000641E01F8016BF9D113F0080F1EBF10F8AF
:1001A000014BAD1C0C1B09D16D1E58BF01F801CBD2
:1001B000FAD505E014F8016B01F8016B6D1EF9D555
:1001C0009142D6D37047000000230024002500266A
:1001D000103A28BF78C1FBD8520728BF30C148BFAA
:1001E0000B607047642908F01583752908F01283A5
:1001F000632908F09284732908F0978400207047DF
:100200001FB51FBD10B510BD08F006FD1146FFF764
:10021000F7FF00F097F808F024FD03B4FFF7F2FFB2
:1002200003BC02F0E5FB0000224B19680868B0E847
:10023000F00F80F30988BFF36F8F4FF0000080F359
:1002400011884EF00D0E704700000000064800684F
:10025000006880F3088862B661B6BFF34F8FBFF3C2
:100260006F8F00DF00BF00BF08ED00E0EFF30980F3
:10027000BFF36F8F0F4B1A6820E9F00F106008B5BD
:100280004FF0500080F31188BFF34F8FBFF36F8F93
:1002900005F056FC4FF0000080F31188BDE80840DF
:1002A00019680868B0E8F00F80F30988BFF36F8F12
:1002B000704700BFCC000020EFF3058070470000BE
:1002C0002DE9FC4106F0F0FD00240426CDE9006490
:1002D0004FF400782346424623A1274805F0A2F9AF
:1002E0000325CDE90054B70100233A4623A127484E
:1002F00005F098F9CDE900540023424624A127488F
:1003000005F090F9CDE900540023802224A127486C
:1003100005F088F9CDE9005400233A4624A1274886
:1003200005F080F9CDE900640023424624A1274866
:1003300005F078F92648006805F09FF9BDE8FC4112
:1003400006F0CCBD1CB506F045FF21490420002372
:10035000CDE9000182011FA1AFF29B0005F062F917
:1003600005F006FD00201CBD42616C616E63655F97
:100370007461736B000000005B8400084D505536BB
:100380003035305F7461736B000000000379000842
:1003900073686F775F7461736B00000069770008A2
:1003A0006C65645F7461736B00000000E30B000810
:1003B000505354574F5F7461736B0000A3130008D0
:1003C000444154415F7461736B000000AB19000835
:1003D0000000002073746172745F7461736B0000BD
:1003E0007047FEE7FEE7FEE7FEE770470CB5002228
:1003F0004C4800920192016841F4803101604FF451
:10040000A063016801F4003101910099491C009139
:10041000019911B900999942F3D10168890333D543
:100420000121019140490A6842F010020A600A68FD
:1004300022F003020A600A6842F002020A60416880
:10044000416041684160416841F4806141604168B8
:1004500021F47C114160416841F4E8114160016878
:1004600041F08071016001688901FCD5416821F08B
:1004700003014160416841F0020141604168C1F3FC
:1004800081010229FAD10CBD01920CBD254810B59D
:10049000016841F0010101604168244A1140416056
:1004A0000168234A11400160016821F48021016044
:1004B000416821F4FE0141604FF41F018160FFF7A4
:1004C00095FF1C494FF00060086010BD154A10B53B
:1004D0005068194B10F00C01184803D0042901D0C2
:1004E000082901D0036012E05168536801F47011CB
:1004F0004FF0020413F4803F04EB914102D05368A3
:100500009B0301D50E4B00E00B4B59430160516832
:100510000A4AC1F30311121D515C0268CA4002600D
:1005200010BD000000100240002002400000FFF853
:10053000FFFFF6FE08ED00E000127A000400002044
:1005400000093D0030B587B001214FF4047002F07E
:1005500056FD4FF4004002F0E6FC2020ADF81400F8
:1005600000248DF8174005A93D4802F060FB0820E3
:10057000ADF814008DF8174005A93A4802F057FB72
:10058000394D284603F096FC4FF46020CDE9020473
:1005900001208DF804408DF8100000948DF805407E
:1005A0006946284603F0A2FC0121284603F0C6FC58
:1005B000284603F0E0FC284603F0E2FC0028FAD1CC
:1005C000284603F0E4FC284603F0E6FC0028FAD1B4
:1005D00007B030BD10B5244C014607230122204648
:1005E00003F004FD0121204603F0DDFC022120463A
:1005F00003F0D0FD0028F9D02046BDE8104003F0FC
:1006000039BD2DE9F04100250E4607462C4608E08D
:100610003846FFF7DFFF0544052002F089F9641C26
:10062000E4B2B442F4D3B5FBF6F080B2BDE8F08199
:1006300010B50520FFF7CEFF09F015FB4FF066322D
:100640000A4B09F05FFB0022094B09F05BFB6FF0DE
:100650000B020AF014FABDE8104009F0A7B8000038
:1006600000080140001001400024014066660A4075
:100670000000264010B5012188B0084602F0C8FCF1
:1006800001210C2002F0BBFC0121084602F0B7FC5E
:100690000121B64802F056FB0121B54802F052FB99
:1006A0004FF40040ADF80C0004248DF80F4003A96E
:1006B000B04802F0BCFA0820ADF80C008DF80F40ED
:1006C00003A9AD4802F0B3FA684603F097F9002099
:1006D0004FF6FF71ADF80410ADF80000ADF806005C
:1006E000ADF8020024076946204602F003FF00230C
:1006F0001A460321204603F022FA04A803F091F9D8
:100700000A21ADF8181004A9204603F0ABF8012126
:10071000204603F0BDFB01221146204603F0A7F955
:100720000021204603F08BFB0121204603F08AF9CB
:1007300008B010BD10B588B00121022002F068FC9D
:100740000121042002F05BFC0121084602F057FC65
:10075000C020ADF8180004208DF81B0006A98548BC
:1007600002F065FA684603F049F900204FF6FF7180
:10077000ADF80410ADF80000804CADF80600ADF8FF
:1007800002006946204602F0B5FE00231A46032106
:10079000204603F0D4F903A803F043F90A21ADF889
:1007A000141003A9204603F05DF80121204603F050
:1007B0006FFB01221146204603F059F90021204623
:1007C00003F03DFB0121204603F03CF9B0E710B5F2
:1007D00088B00121042002F01BFC0121082002F056
:1007E0000EFCC020ADF8180004208DF81B0006A9EF
:1007F000614802F01CFA684603F000F900204FF649
:10080000FF71ADF80410ADF800005D4CADF80600C6
:10081000ADF802006946204602F06CFE00231A463D
:100820000321204603F08BF903A803F0FAF80A210C
:10083000ADF8141003A9204603F014F80121204656
:1008400003F026FB01221146204603F010F9002197
:10085000204603F0F4FA0121204603F0F3F867E79D
:1008600010B588B00121082002F0D2FB012104203C
:1008700002F0C5FB0320ADF8180004208DF81B0022
:1008800006A93C4802F0D3F9684603F0B7F8002007
:100890004FF6FF71ADF80410ADF80000394CADF81B
:1008A0000600ADF802006946204602F023FE002350
:1008B0001A460321204603F042F903A803F0B1F8D9
:1008C0000A21ADF8141003A9204602F0CBFF012144
:1008D000204603F0DDFA01221146204603F0C7F856
:1008E0000021204603F0ABFA0121204603F0AAF8CC
:1008F0001EE70021022807D003280BD004280CD0C3
:1009000005280DD0002070474FF08042B2F9240036
:1009100091847047194A243204E0194A243201E0D4
:10092000184A2432B2F90000118070474FF080401D
:10093000018A018A21F00101018270470F481030BD
:100940000188018821F00101018070470C481030B6
:100950000188018821F001010180704709481030A9
:100960000188018821F001010180704700023000F8
:100970000001180000080140000C01400004004084
:1009800000080040000C004008B50121082002F0DA
:1009900036FB4FF44060ADF8000010208DF80300E6
:1009A00002208DF8020069467F4802F040F908BD38
:1009B00070B57D48001D016821F470410160016837
:1009C00041F440510160794C0120C4F8AC01C4F8F5
:1009D000A801042004F5D47401F092FF002565609D
:1009E000042001F08DFF256070BD6F4810B5001D1B
:1009F000016821F470410160016841F440510160D7
:100A00006A4C0020C4F8A801C4F8AC01042004F525
:100A1000D47401F075FF012020606060BDE81040D3
:100A2000042001F06DBF70B55F480024001D01680F
:100A300021F470410160016841F4004101605B4DA7
:100A40000126C5F8AC61304601F05AFFC5F8A8612F
:100A5000012001F055FF07E0641CE4B2FA2C03D931
:100A6000FFF7C3FF012070BDD5F82C010028F3D19A
:100A7000C5F8A80170BD70B54C4C0025C4F8A8514C
:100A80004948001D016821F470410160016841F48A
:100A900040510160C4F8AC51022004F5D47401F057
:100AA0002FFF01202060022001F02AFF256070BD89
:100AB00070B53E4C0026C4F8A8613B48001D016893
:100AC00021F470410160016841F440510160012549
:100AD000C4F8AC51022004F5D47401F011FF256074
:100AE000022001F00DFF266070BD2DE9F0410546A2
:100AF0002D48001D016821F470410160016841F436
:100B000040510160294E0027C6F8A8713C464FF0BD
:100B10000108E809C6F8AC016806050E022001F0DC
:100B2000EFFEC6F8A881022001F0EAFEC6F8A8711F
:100B3000022001F0E5FE641CE4B2082CE9D3BDE814
:100B4000F0812DE9F047814617480024001D016817
:100B500021F470410160016841F400410160134ECD
:100B6000254627464FF00108C6F8A871022001F07B
:100B7000C7FEC6F8A8816006040ED6F82C0108B19D
:100B8000641CE4B2012001F0BBFE6D1CEDB2082D27
:100B9000EAD3B9F1000F04D0FFF76DFF2046BDE89E
:100BA000F087FFF785FFF9E7000C01400080214244
:100BB00038B50121082002F022FA4FF40054ADF8B4
:100BC000004010208DF8030003200B4D8DF802002B
:100BD0006946284602F02BF82146284602F091F893
:100BE00038BD064C064DD4F8B401C043C4F8B40176
:100BF000286804F0D9FEF6E7000C0140008021428D
:100C000024000020F8B50121382002F0F8F9332043
:100C1000ADF8000010245C4E8DF8034003258DF8DC
:100C200002506946304602F002F841F23000ADF859
:100C30000000564F8DF803408DF802506946384643
:100C400001F0F5FF0420ADF800008DF80340504C92
:100C50008DF802506946204601F0E9FF1021304628
:100C600002F051F82021304602F04DF801213046C3
:100C700002F049F80221304602F045F810213846CA
:100C800002F041F82021384602F03DF8A114384620
:100C900002F039F80421204602F035F8F8BD70B5AD
:100CA0000D460446012188B0480302F0A8F901214D
:100CB000102002F0A4F94FF47072ADF81C20182235
:100CC0008DF81F2003208DF81E0007A92F4801F082
:100CD000AEFFADF81440ADF810502E4E01250024A3
:100CE000ADF81650ADF8124004A9304602F002FCEF
:100CF0006020ADF800006802ADF80E00ADF80250BB
:100D0000ADF80640ADF808406946304602F02BFCCD
:100D10006946304602F05CFC6946304602F094FCBD
:100D20006946304602F0CAFC0821304602F068FFEE
:100D30000821304602F074FF0821304602F07AFFA5
:100D40000821304602F07CFF0121304602F030FFDE
:100D50000121304602F076FE0121304602F07CFE91
:100D600008B070BD08B50121042002F048F94FF425
:100D70008050ADF8000048208DF803006946064811
:100D800001F055FF08BD0000000C014000100140BB
:100D900000140140003401400008014030B5002338
:100DA000FC4A012411B1C2F8804101E0C2F880314F
:100DB0000021C2F8B431050602D5C2F8B84101E0FD
:100DC000C2F8B831C2F8B4414006491C000EC9B29D
:100DD0000829EED3C2F8804130BD70B5EE4E002533
:100DE00005F1B000C0B20021FFF7D8FF002108468E
:100DF000FFF7D4FF00211020FFF7D0FF002406EBFF
:100E0000C4000121405DFFF7C9FF641CE4B2802CDF
:100E1000F5D36D1CEDB2082DE2D370BD00B50021F5
:100E20008D20FFF7BBFF00211420FFF7B7FF002143
:100E3000AF205DF804EBB1E700B500218D20FFF78E
:100E4000ADFF00211020FFF7A9FF0021AE205DF8C3
:100E500004EBA3E710B40021CF4B0A46002003EBBC
:100E6000C004401CC0B262548028F8D3491CC9B2E7
:100E70000829F3D310BCB0E710B57F2816D83F2956
:100E800014D80723A3EBD10301F00701C1F1070434
:100E90000121A140C04CDBB204EBC000002AC25CBF
:100EA000C9B201D00A4300E08A43C25410BD2DE903
:100EB000F04F203A9C460D468246884602F0FF09D4
:100EC0000026DDF824B02FE0BCF10C0F08D0B349A8
:100ED00001EB09100027845D200607D55A4609E07A
:100EE000AF4909EB490001EB8000F3E7BBF1000FCC
:100EF00012D0002229465046FFF7BEFF60066D1C47
:100F0000040EEDB2A5EB0800604507D10AF101001F
:100F1000454600F0FF0A05E00122EBE77F1CFFB227
:100F2000082FD9D3761CF6B26645CDD3BDE8F08F35
:100F30000346012000E05843491EC9B2FBD2704766
:100F40002DE9FF4F81B00027DDF838B01D469246ED
:100F500080463C464FF001094FEA5B0627E0281B1C
:100F6000401EC1B20A20FFF7E3FFBAFBF0F00A21EE
:100F7000B0FBF1F201FB120027B9691E8C4201DAC5
:100F800048B101273030C2B206FB0480C0B25B46D4
:100F9000CDF8009006E006FB0480C0B25B4620223C
:100FA000CDF800900299FFF782FF641CE4B2AC42D6
:100FB000D5D305B0BAE7F8B516460D460446012765
:100FC00014E07A2C02D900241035EDB23A2D03D961
:100FD00000242546FFF73EFF009732780C23294670
:100FE0002046FFF764FF0834E4B2761C307800280E
:100FF000E7D1F8BD38B50121102002F000F8012139
:10100000084601F0FCFF4EF20100ADF80000102090
:101010008DF8030002208DF802006946614801F056
:1010200006FE012003F0BAFC002001F083FF00203F
:1010300003F068FC002003F0B1FC564C0020C4F81B
:10104000BC01642004F5DE7401F072FC0120206014
:101050000021AE20FFF7A2FE0021D520FFF79EFE63
:1010600000215020FFF79AFE0021A820FFF796FEEE
:1010700000213F20FFF792FE0021D320FFF78EFED4
:1010800000210846FFF78AFE00214020FFF786FE78
:1010900000218D20FFF782FE00211420FFF77EFE45
:1010A00000212020FFF77AFE00210220FFF776FEC4
:1010B0000021A120FFF772FE0021C020FFF76EFE85
:1010C0000021DA20FFF76AFE00211220FFF766FEFA
:1010D00000218120FFF762FE0021EF20FFF75EFE76
:1010E0000021D920FFF75AFE0021F120FFF756FE1C
:1010F0000021DB20FFF752FE00213020FFF74EFEDB
:101100000021A420FFF74AFE0021A620FFF746FE9B
:101110000021AF20FFF742FEFFF79CFE38BD10B55F
:101120000446B031C8B20021FFF738FE102040EA73
:1011300014100021FFF732FE04F00F00BDE810404C
:1011400000212BE62DE9FF4F9846DDF834C091468B
:101150008A4600254FEADC07DFF84CB015E00AEBC1
:101160000500C1B20098FFF7DAFF07FB0950002421
:101170000BEB001605E0305D0121FFF70FFE641C4C
:10118000E4B24445F7D36D1CEDB2B5EBDC0FE6D30A
:10119000BDE8FF8F0000224214020020CAAF000801
:1011A00056AB000800100140BAB50008F949085CC8
:1011B00070472DE9F84F01258046ADF80050F548FD
:1011C00000274770ADF80050F34EF44C81464FF6BF
:1011D000FF7A25E0BDF8000010EA080F02D0C6F83B
:1011E000845101E0C6F88471C4F89051052001F0E3
:1011F00087FBC4F89071052001F082FBC4F8905180
:10120000D6F8080130B199F80110BDF8002011435B
:1012100089F80110BDF800100AEA4100ADF800009D
:10122000BDF80000FF28D5D9BDE8F84F102001F027
:1012300067BB2DE9FC4700268DF800600125ADF85D
:101240000450DFF85CA3CAF8B061D64C2078FFF7F1
:10125000B0FF6078FFF7ADFF02208DF80000CF4CA3
:10126000DFF83483CB4F4FF6FF792CE0ADF8045014
:101270001DE0C4F89051052001F042FBC4F89061D4
:10128000052001F03DFBC4F89051D8F8080140B1A9
:101290009DF80000BDF80410385C08439DF800106C
:1012A0007854BDF8041009EA4100ADF80400BDF817
:1012B0000400FF28DDD9102001F022FB9DF800007A
:1012C000401C8DF800009DF800000928CED3CAF814
:1012D000B051BDE8FC870020AE4A01461154401CC5
:1012E000C0B20928FAD3704770B5FFF7F4FFFFF7D3
:1012F000A0FFA848AB4AB0F80340AA48083244808F
:101300000020012512F8103000F101005B1E05FAE3
:1013100003F12142C0B202D01028F3D3002070BDE7
:1013200070B5FFF7E1FF09F0B3F99F49994C054605
:101330000860E07909F0ACF99C490860207A09F06E
:10134000A7F99B4906460860607909F0A1F9994917
:101350000860A07909F09CF99749924A0860012039
:101360009649B5F1814F01D10B78C3B15268002A7B
:1013700014D0934A964211DA0A78002A0ED1914A83
:101380001268B2F57A7F09DB08708F490020087077
:101390008E4908708E4908708E49087070BD506083
:1013A000E7E708B501F0F8FA00900A21684604F072
:1013B000A1FAFFF7B5FFF8E7F8B501211C2001F00D
:1013C0001EFE0420ADF800002820834E8DF8030097
:1013D0006946304601F02BFC0220ADF800001024D5
:1013E0008DF8034003258DF802506946304601F020
:1013F0001EFC2002ADF800008DF803408DF802506D
:101400006946764801F013FCADF800408DF80340C2
:101410008DF802506946724801F009FCF8BD70B5BC
:101420005F4D0020C5F8B0015E4C05F5D8752078F9
:10143000FFF7BFFE6078FFF7BCFE0120286055482B
:101440004078732801D0012070BD002070BD70B5B8
:10145000534C054600200E46C4F8B001102004F598
:10146000D87401F04DFA0120FFF7A3FE4220FFF7E8
:10147000A0FE0020FFF79DFE2846FFF79AFE3046AB
:10148000FFF797FE0020FFF794FE0020FFF791FE84
:101490000020FFF78EFE0020FFF78BFE012020606A
:1014A000BDE87040102001F02BBA10B53C4C002074
:1014B000C4F8B001102004F5D87401F021FA01201D
:1014C000FFF777FE4220FFF774FE0020FFF771FE62
:1014D0000020FFF76EFE0020FFF76BFE012020606A
:1014E000BDE81040102001F00BBA10B52C4C0020C4
:1014F000C4F8B001102004F5D87401F001FA0120FD
:10150000FFF757FE4320FFF754FE0020FFF751FE80
:101510000120FFF74EFE0020FFF74BFE0020FFF7F3
:1015200048FE0020FFF745FE0020FFF742FE0020A6
:10153000FFF73FFE01202060BDE81040102001F0C1
:10154000DFB910B5164C0020C4F8B001012004F535
:10155000D874FFF72EFE4420FFF72BFE0020FFF784
:1015600028FE0120FFF725FE0320FFF722FE0020C2
:10157000FFF71FFE0020FFF71CFE0020FFF719FEFB
:101580000020FFF716FE01202060BDE8104010206B
:1015900001F0B6B9140600200000224200002142EA
:1015A00000802142280000208C0100207C010020C6
:1015B00080010020840100208801002050010020CB
:1015C0000000EC429C01002052010020510100204B
:1015D000530100205401002000100140000C014084
:1015E0000008014010B53C4C0020C4F8B0011020A8
:1015F00004F5D87401F084F90120FFF7DAFD4D20DD
:10160000FFF7D7FD0020FFF7D4FD0020FFF7D1FD45
:101610000120FFF7CEFD01202060BDE81040102022
:1016200001F06EB910B52C4C0020C4F8B0011020A8
:1016300004F5D87401F064F90120FFF7BAFD4320E6
:10164000FFF7B7FD0020FFF7B4FD0020FFF7B1FD65
:101650005A20FFF7AEFD5A20FFF7ABFD5A20FFF7E7
:10166000A8FD5A20FFF7A5FD5A20FFF7A2FD012093
:101670002060BDE81040102001F042B910B5FFF71E
:1016800014FFFFF712FFFFF710FFFFF72EFFFFF722
:1016900058FFBDE81040C5E7104810B50078A0B16C
:1016A0000F4CE07908F0F4FF0E490860207A08F04A
:1016B000EFFF0D490860607908F0EAFF0B49086008
:1016C000A07908F0E5FF0A490860FFF70DFE08F071
:1016D000DFFF0849086010BD008021425001002052
:1016E000140600207C0100208001002084010020DD
:1016F000880100208C0100207CB5FE4988680A28FA
:1017000001DA401C8860FD48FB4E3146006809F054
:1017100007F808F069FF0546F9483146006808F007
:10172000FFFF08F061FF0446F6483146006808F004
:10173000F7FF08F059FF290A8DF800108DF80150C5
:10174000210A8DF80210010A8DF804108DF803406B
:101750008DF805000024EC488DF806408DF8074010
:10176000006808F041FF06F0B0FB012803D0E7480D
:101770000068012804D18DF8044000948DF80540DC
:10178000694640F2831001F082F8E14C00206D467A
:10179000215C2954401CC0B20828F9D3294640F2E4
:1017A000011001F074F800202118097A2954401C16
:1017B000C0B20828F8D369464FF4817001F067F889
:1017C00000202118097C2954401CC0B20828F8D3F5
:1017D000694640F2031001F05AF87CBDCD490880FB
:1017E000081F01884906FCD5704700B5C84B002288
:1017F000985CFFF7F3FF521CD2B2182AF8D300BD51
:1018000030B503460020012908D10022C04C03E076
:10181000A55C6840521CD2B29A42F9D3002908D183
:10182000BB4A323203E0545C6040491CC9B2994261
:10183000F9D330BD2DE9F05F9B469246894680463C
:1018400008F09CFD514608F099FD594608F096FDB8
:101850006FF00105294609F040F9A74E314608F01E
:101860005FFF08F0C1FEAA4C49466083404609F07C
:101870005FF8514608F082FD594609F059F82946AB
:1018800009F02BF9314608F04BFF08F0ADFEA083BC
:10189000A1480168A148006808F070FD074688F07B
:1018A0000040494609F044F8514608F067FD5946A2
:1018B00008F064FD294609F010F9394608F0D2FD18
:1018C000314608F02DFF08F08FFEE083BDE8F09F61
:1018D0002DE9F0478E4C7B2020767D2084F82E0069
:1018E0008F4803688F4802688F4801688F480068F6
:1018F000FFF7A0FF8E49B1F9020060848146088895
:10190000404207B2A784B1F904608A49E684B1F97C
:1019100002502585088840420FFA80F88648A4F8CE
:101920002A8000785FEA000A3DD000217648A18530
:101930007149006808F0F4FE08F056FE2084217E0C
:10194000217084F801A0618B0A0AA270E170A18B5A
:101950000A0A22716171E18B0A0AA271E1714FEAF0
:101960001921217284F80990390AA172E772310AAB
:1019700021736673290AA173E5734FEA1821217454
:1019800084F81180A18D0A0AA274E174010A2175FC
:10199000607501211620FFF733FFA07594F82E0023
:1019A000E075BDE8F0878988C0E708B500F0F4FF6E
:1019B00000903221684603F09DFFFFF789FFFFF793
:1019C00014FFFFF799FEF4E75C490880081F0188BF
:1019D0004906FCD5704700B54D4B0022985CFFF7D7
:1019E000F3FF521CD2B2182AF8D300BD30B5054619
:1019F00087B00121042001F002FB0121880301F0DE
:101A0000FEFA4FF40070ADF8100003208DF81200BC
:101A100018204B4C8DF8130004A9204601F007F95B
:101A20002015ADF8100048208DF8130004A92046B9
:101A300001F0FDF825208DF8140001218DF8151016
:101A400000248DF816408DF8171005A801F045F810
:101A5000ADF80440ADF80640ADF80840ADF80C40D4
:101A6000364C0C20ADF80A00241F0095694620462C
:101A700001F044FB012240F22551204601F0BBFB5E
:101A80000121204601F0ADFB07B030BD30B5054661
:101A900087B00121042001F0B2FA0121480401F0CD
:101AA000B7FA0420ADF8100003208DF812001820BA
:101AB000234C8DF8130004A9204601F0B8F8082043
:101AC000ADF8100048208DF8130004A9204601F05D
:101AD000AEF826208DF8140001218DF81510002491
:101AE0008DF816408DF8171005A800F0F6FF009548
:101AF00028E000005000002000007A445C01002033
:101B0000600100206401002018000020BC010020BA
:101B1000520600200448004070010020740100209B
:101B2000385A0020245A0020105A0020FC59002066
:101B3000A6010020A001002040010020043801403F
:101B400000080140ADF80440ADF80640ADF808408B
:101B5000ADF80C400C20FD4CADF80A00694620465B
:101B600001F0CCFA012240F22551204601F043FB5E
:101B70000121204601F035FB86E730B505460121FD
:101B800087B0084601F03BFA0121102001F037FA36
:101B90000121880401F03CFA0121ED4801F0D2F85E
:101BA0004FF48060ADF8100003208DF8120018206B
:101BB000E84C8DF8130004A9204601F038F8E11430
:101BC000ADF8101048208DF8130004A9204601F04C
:101BD0002EF827208DF8140002208DF8150000241F
:101BE0008DF8164001208DF8170005A800F075FF4C
:101BF000ADF80440ADF80640ADF80840ADF80C4033
:101C00000C20D54CADF80A0000956946204601F03D
:101C100075FA012240F22551204601F0ECFA01212B
:101C2000204601F0DEFA2FE72DE9F04101EB00201C
:101C300004B24FF47A7794FBF7F007FB104007F0FB
:101C4000FBFFC64AC64B08F05DF8054694FBF7F06B
:101C50000E4607F0F1FF2A46334607F0D9FDBDE8EE
:101C6000F04107F0A3BD70B5BE4C40F225512046AF
:101C700001F078FBE8B3204601F00DFBC1B2BA4891
:101C80000068B0F57A7F34DBB94AB84C002510788B
:101C90007B29215400D060B3401CC0B210700B28C7
:101CA00027D11570A07A7D2823D100210920FFF7C4
:101CB000A7FD617A88421CD1AE48B2490570AE4892
:101CC0000570AE480570AE48057001200870217996
:101CD000E078FFF7A9FFAC490860A1796079FFF7C8
:101CE000A3FFAA490860217AE079FFF79DFFA84980
:101CF0000860002070BD2DE9F04740F2255193485F
:101D000001F030FB002871D09048001D0088A149E7
:101D10000968B1F57A7F69DB0126954C00254128D9
:101D20000ED1217941290BD194490A7842B9914ABF
:101D30001570914A15700E7091490D7091490D7092
:101D4000C7B29549954BDFF858C2964A27714B2880
:101D500008D0492808D04A2806D012782AB1012A8A
:101D60000BD01EE016700CE01570A0F14102072A9E
:101D700027D9082814DC0F7013E0432809D047281E
:101D80000BD01D708CF8005041281AD0452818D06F
:101D900006E01D708CF8006002E01E708CF80050A8
:101DA0000D70DFF8C8818049DFF80092A8F164085F
:101DB00058280AD059280DD07B2818D07D281DD04E
:101DC0000EE0A0F140020A70EBE7D9F8000008F03D
:101DD000D5FA03E0D9F8000008F0AAFDC9F8000020
:101DE0006078012804D002280AD05EE064E06670C2
:101DF000A07808F80070401CA07056E002206070C7
:101E000098F803104046502906D04178232943D042
:101E1000A178E170C24629E0654806703CE0A178EF
:101E2000081A07F009FF02460B460020614906F038
:101E3000ABFF0646E0780F468046504410F8010C90
:101E4000303807F0F9FE32463B4607F05BFF0646A6
:101E50000F46E06808F066FA3B46324607F0D8FCC9
:101E600007F0A4FCE060A8F10100E070E07804282D
:101E7000D5D29AF80100303803280DD2DFE800F0FF
:101E800002060900E168C9F8001005E04A49E06867
:101E900001E04A49E06808606570A5703348E57064
:101EA00032216438E56006F081FDD9F8001011F1A7
:101EB000FF4F01D3C9F80050002072E570B5264CE1
:101EC00040F22551204601F04DFAE0B3204601F0E2
:101ED000E2F9C1B224480068B0F57A7F33DB244AC6
:101EE000224C002550797B29215400D058B3401C46
:101EF000C0B250710B2826D15571A07A7D2822D10D
:101F000000210920FFF77CFC617A88421BD1194827
:101F10000570194805701948057019480570194869
:101F200005702179E078FFF77FFE17490860A179F5
:101F30006079FFF779FE15490860217AE079FFF7AB
:101F400073FE13490860002070BD0000004400408B
:101F5000100014000010014000480040FCA9F1D21C
:101F60004D62503F00380140D0010020840600201F
:101F7000500000205001002052010020510100209B
:101F800053010020540100205C010020600100206A
:101F9000640100209C0100205501002078010020F0
:101FA000790100207A0100200000C842440100208D
:101FB0007B01002000002440480100204C0100204B
:101FC00003490880081F01884906FCD570470000B6
:101FD0000444004008B50121082001F010F84FF436
:101FE0008040ADF8000048208DF803006946224883
:101FF00000F01DFE08BD21482149027812B1D1F838
:10200000382122B1D1F83811012904D005E000218E
:1020100001700120704701210170002070470021EC
:102020004FF4FA720020401C9042FCDB491C32291C
:10203000F8DB704710B5124CD4F838010F4B20B9BB
:1020400058680B2801DA401C5860D4F83801012880
:1020500005D1FFF7E4FFD4F83801012805D058680E
:102060000A2806D0012D04D001E00020586000208D
:1020700010BD012010BD0000000C014060000020D8
:1020800000802142F0B50E460546012189B0C80204
:1020900000F0B5FF0121042000F0B1FF4FF43064DF
:1020A000ADF81C402821C54F8DF81F1007A93846F0
:1020B00000F0BDFD2146384600F025FEADF8106069
:1020C0000024BF4EADF81450ADF81640ADF81240E4
:1020D00004A9304601F00EFA01250F20ADF80040AA
:1020E000ADF80450ADF80800ADF80240ADF8064078
:1020F0006946304601F0B6FB0420ADF80000ADF8AB
:102100000450ADF80240ADF80640ADF8084069460D
:10211000304601F0A7FB0C20ADF80000ADF80450EC
:10212000ADF80240ADF80640ADF8084069463046CB
:1021300001F098FB19208DF80C008DF80D408DF8FA
:102140000E408DF80F5003A800F0C7FC1B208DF83F
:102150000C008DF80D408DF80E408DF80F5003A83F
:1021600000F0BBFC01221E21304601F080FC012161
:10217000304601F071FC0121304601F063FC09B0EA
:10218000F0BD2DE9F0478F4900248869A0F2416035
:10219000312811D28C48027872B98C4A1268B2F593
:1021A0007A7F09DB01220270894804708948047033
:1021B00089480470894804700878814D8846000673
:1021C0004FF6FF764FF4FA772CD40221284601F01F
:1021D00062FE38B30221284601F069FE98F800003B
:1021E000400628463BD501F03FFEA8F80600B8F8A7
:1021F00004104246884201D2566300E05463401AFC
:10220000516B08445061516A401A00D54042B842AF
:1022100000DD51615069506288F800400021284675
:1022200001F058FD98F80100000639D40421284631
:1022300001F031FEA0B30421284601F038FE98F8E1
:1022400001004006284648D501F010FEA8F80A0013
:10225000B8F80810424688420ED296630DE001F0AD
:1022600003FE0146A8F8041098F8001041F0400160
:1022700088F800100221D2E79463401A916B084459
:102280009061916A401A00D54042B84200DD9161E8
:102290009069906288F801400021284601F026FDEF
:1022A00098F80200000639D40821284601F0F3FD11
:1022B000A0B30821284601F0FAFD98F80200400674
:1022C000284644D501F0D4FDA8F80E00B8F80C104B
:1022D000424688420ED2D6630DE001F0C7FD0146AA
:1022E000A8F8081098F8011041F0400188F8011092
:1022F0000221D2E7D463401AD16B0844D061D16A7D
:10230000401A00D54042B84200DDD161D069D062A8
:1023100088F802400021284601F0FCFC10212846E4
:1023200001F0B9FD002840D01021A946284601F04F
:10233000BEFD98F80300454640062AD5484601F000
:1023400099FD6882298A88420ED22E640DE001F040
:102350008FFD0146A8F80C1098F8021041F04001DA
:1023600088F802100221D6E72C64401A296C084430
:102370002862296B401A00D54042B84200DD29622C
:10238000286A2863EC7000214846BDE8F04701F058
:10239000D5BC4C46484601F06DFD2882E878022104
:1023A00040F04000E8702046EFE7BDE8F0870448C1
:1023B0001030018821F001010180704700080140C0
:1023C000002C014068000020520100209C010020E8
:1023D0005101002050010020530100205401002031
:1023E0002DE9F04F87B00024E8B3E1B3DAB3D3B3FB
:1023F000491E401ECFB200F0FF09521E5B1E012194
:10240000D6B29DB2084600F0FAFD0121082000F086
:10241000F6FD0121480600F0FBFD01214FF4EA1012
:1024200000F090FC4FF40070ADF810004FF0030B7B
:102430008DF812B01820DFF808848DF8130004A975
:10244000404600F0F4FB4FF48070ADF810004820D7
:102450008DF8130004A9404600F0E9FBF948002379
:102460000360016800E004E041F001010160021D29
:1024700009E0012007B0BDE8F08F641CA4B2642C11
:1024800001D90220F6E71168C907F6D00168824633
:1024900001600168016001680160016841F010019C
:1024A00001600168016001680160E6491C310B6050
:1024B000D1F80080DDF840C048EA8C7CC1F800C04B
:1024C000D1F8008048EA096CC1F800C0D1F800C01A
:1024D0004CEA07570F600F6847EA06460E600E6821
:1024E0002E430E60016821F0010101604FF6F0708B
:1024F00005E0641CA4B2844201D90320BAE7116844
:10250000C907F6D101248DF80A408DF80B308DF8FB
:102510000C40ADF80030ADF80430ADF80230ADF845
:102520000630ADF808308DF80D40684601F0E1FE48
:10253000C4481430016841F00201016014208DF894
:1025400014008DF815408DF816B08DF8174005A8C9
:1025500000F0C3FA01220221504602F0F9F80020EF
:1025600088E7F0B50646B748059D08300468640161
:1025700001D5002008E00468240101D5012003E012
:102580000068C0003CD50220AF4C002704EB0014CB
:10259000C4F8807599B3F600D4F880753743C4F851
:1025A0008075D4F8806546EA8101C4F88015D4F8B6
:1025B000801541EA4201C4F88015D4F8842503F05F
:1025C0000F0122F00F02C4F88425D4F884250A43B1
:1025D000C4F884252979D5F8052041EA0221C4F8F8
:1025E0008C152978D5F8012041EA0221C4F8881514
:1025F000D4F8801541F00101C4F88015F0BD01E068
:10260000FF20FBE77605C7E78E49083128B101288E
:1026100010D002281BD00520704708680A6800F017
:10262000010002F002020243086800F0806042EA02
:102630001060704708680A6800F0010002F00202AA
:102640000243086800F0006042EA50607047086882
:102650000A6800F0010002F002020243086800F07C
:10266000805042EA9060704718B1012804D00020E1
:10267000704774480C3001E072481030006800F078
:1026800003007047F0B5704CDDE9057504EB0014EC
:10269000D4F8B06516F004061670D4F8B02533D01F
:1026A000D2080A60D4F8B01501F002011970D4F80C
:1026B000B41501F00F013970D4F8B8152970D4F8A9
:1026C000B815090A6970D4F8B815090CA970D4F8BE
:1026D000B815090EE970D4F8BC152971D4F8BC15E9
:1026E000090A6971D4F8BC15090CA971D4F8BC1594
:1026F000090EE97150B1012805D152481030016826
:1027000041F02001016079E7520DCAE74D480C30D5
:10271000F5E710B588B002A907A8CDE9000106AB1E
:1027200005AA04A90020FFF7ADFF0498A0F5807169
:10273000813936D14549012008704549002008708B
:102740004449087044490870444908709DF80900DC
:102750009DF8081000EB012000B207F081FF404C0B
:10276000214607F07FFE3F4908609DF80B009DF869
:102770000A1000EB012000B207F072FF214607F0BB
:1027800071FE394908609DF80D009DF80C1000EBB2
:10279000012000B207F064FF214607F063FE3349D1
:1027A000086008B010BD38B500240B4600902246E2
:1027B000214640F20160FFF7D4FE054640F6FF7364
:1027C00001E0641CA4B22846FFF71EFF072801D0D1
:1027D0009C42F6D39C4201D3012038BD002038BD75
:1027E00000B5014686B00020FFF73EFF002816D056
:1027F00002A8CDE9000105AB04AA03A90020FFF758
:1028000041FF0398122805D19DF8100010B99DF8DA
:10281000140010B100208DF808009DF8080006B0E3
:1028200000BD38B500240B4600902246214640F2F8
:102830000170FFF796FE054640F6FF731AE00000B0
:10284000000C014000640040006000405301002083
:1028500050010020510100205201002054010020AD
:1028600000007A445C010020600100206401002027
:10287000641CA4B22846FFF7C7FE072801D09C427B
:10288000F6D39C4201D3012038BD002038BD38B5B5
:1028900000240091082322462146FFF762FE0546E8
:1028A00040F6FF7301E0641CA4B22846FFF7ACFEBB
:1028B000072801D09C42F6D39C4201D3012038BDA9
:1028C000002038BD10B5042000F047F938483949D8
:1028D000394A0068B0FBF1F3B0FBF1F14FF47A70C4
:1028E00041431370012050804FF0E020026942F014
:1028F000020202614161016941F00101016110BD03
:1029000070B54FF0E02500216C692B4AAB69127855
:102910005043AA699A42FCD002D2A3EB020302E020
:10292000A4EB02063344194413468142F1D370BD2F
:1029300070B5044603F060FC01280CD01E4D688879
:10294000844203D3B4FBF0F003F02EF86888B4FBA4
:10295000F0F100FB11444FF47A706043BDE8704021
:10296000CEE770B5054600244FF47A7603E0304692
:10297000FFF7C6FF641CAC42F9D370BD10B503F07D
:102980003BFC012803D0BDE8104004F0B8BA0A4867
:102990004168491C416010BD10B503F02DFC0128B1
:1029A00003D0BDE8104003F030BA0348406810BDC2
:1029B0000400002040420F00AC00002030BF7047F0
:1029C00072B6704762B6704741060748826942F0A6
:1029D000010282610548426822F0E062426042687A
:1029E0000A434260704700000010024000000140AE
:1029F000704724490A885206FCD5224AC1B2121DEA
:102A00001180704730B5044685B0012144F20400BE
:102A100000F0F5FA4FF40071ADF8101003218DF8B5
:102A200012101820184D8DF8130004A9284600F044
:102A3000FEF82915ADF8101004208DF8130004A934
:102A4000284600F0F4F80020ADF804000094ADF83A
:102A50000600ADF80800ADF80C000C200B4CADF8EA
:102A60000A006946204600F049FB002240F2255149
:102A7000204600F0C0FB0121204600F0B2FB05B06B
:102A800030BD000000440040000801400038014013
:102A90000948804709480047FEE7FEE7FEE7FEE7F2
:102AA000FEE7FEE7FEE7FEE7FEE7FEE7044805492E
:102AB000054A064B704700008D04000831010008EC
:102AC000C85A0020C8600020C85C0020C85C0020F4
:102AD0002849084328490860704730B50F23C27859
:102AE00001780125F2B1244A126801F1E02102F4D3
:102AF000E062C2F5E062120AC2F10404D3404278F7
:102B0000A24084781C401443220181F800240078FC
:102B100000F01F018D404009800000F1E020C0F866
:102B2000005130BD01F01F0085404809800000F1D0
:102B3000E020C0F8805130BD104A114001430E48DA
:102B4000001F016070470C4A121D0029116801D056
:102B5000014300E08143116070474FF0E0210428F9
:102B6000086903D020F004000861704740F00400B9
:102B7000FAE700000000FA050CED00E080FFFF1FFF
:102B80008F4910B5884206D10121042000F049FA8E
:102B9000002104203BE08B49884206D10121082016
:102BA00000F03FFA0021082031E08749884206D131
:102BB0000121102000F035FA0021102027E0834980
:102BC000884206D10121202000F02BFA002120208C
:102BD0001DE07F49884206D10121402000F021FA02
:102BE0000021402013E07B49884206D1012180204A
:102BF00000F017FA0021802009E0774988420AD1C5
:102C000084150121204600F00CFA00212046BDE881
:102C1000104000F006BA10BD10B50121084600F0C2
:102C200000FA0021BDE81040012000F0FAB9F0B52B
:102C3000CC78002204F00F03E40601D58C782343FE
:102C40000C784FF00F0C14F0FF0F4FF0010E1BD05B
:102C500005680E880EFA02F42640A64210D19600AE
:102C60000CFA06F725EA070703FA06F5CE783D4386
:102C7000282E02D0482E02D002E0446100E0046118
:102C8000521C082AE5D305600A88FF2A1CD944682B
:102C9000002202F108060EFA06F50E882E40AE421A
:102CA0000ED196000CFA06F7BC4303FA06F7CE786D
:102CB0003C43282E00D14561CE78482E00D10561D5
:102CC000521C082AE5D34460F0BD4FF6FF71018025
:102CD000022181700421C170704702460020926871
:102CE0000A4200D001207047806880B270470246D7
:102CF0000020D2680A4200D001207047C06880B22C
:102D0000704701617047416170470AB101617047C6
:102D100041617047C160704741F4803282618161D6
:102D200082618169806970472C4B10B51A684FF633
:102D30008074224042EA00100843186010BD284900
:102D4000C8617047F0B5254C002801DAE36900E05E
:102D50006368450D2E0185B2C0F30157B540C0F33D
:102D60000342032F05D0C6020AD503269640B3437B
:102D700007E023F07062636823F07063636002E031
:102D8000AB4343F0706201B12A43002801DAE261EB
:102D9000F0BD6260F0BD10B58A0721F003040F4951
:102DA000120F21440F238C6893409C438C608B68E6
:102DB000904003438B6010BD0949C1F8DC007047A7
:102DC00000080140000C01400010014000140140C7
:102DD00000180140001C014000200140000001409B
:102DE00000002042A548016841F0010101604168EE
:102DF000A34A114041600168A24A11400160016884
:102E000021F480210160416821F4FE0141604FF40A
:102E10001F018160704799490A6822F480320A6074
:102E20000A6822F480220A60B0F5803F07D0B0F52E
:102E3000802F03D1086840F4A0200860704708681C
:102E400040F48030F9E70346002059098B4A0129F4
:102E50000AD002290AD0516A03F01F0201239340CD
:102E60000B4200D0012070471168F5E7116AF3E7C3
:102E700018B500204FF4A06400903120FFF7E3FF65
:102E80000099491C0091A14201D00028F5D03120C1
:102E9000FFF7D9FF002800D0012018BD774A11683C
:102EA00021F0F80141EAC0001060704776490860DF
:102EB0007047724B5A68084322F47C1210435860E2
:102EC00070477149086670476C4A516821F00301E8
:102ED0000143516070476948406800F00C0070473A
:102EE000664A516821F0F001014351607047634A1E
:102EF000516821F4E0610143516070475F4A5168B5
:102F000021F4605141EAC000506070475B4A0029DB
:102F1000517A01D0014300E08143517270475A4910
:102F2000C1F8D8007047554A516821F44041014327
:102F3000516070475149002281F8202081F82020FB
:102F4000012802D0042802D1052081F82000704712
:102F50004E490860704749490A6A02430A6270474D
:102F60004A4944390860704730B5444A5168484B73
:102F700011F00C0103D0042901D0082901D003600D
:102F800012E05168536801F470114FF0020413F419
:102F9000803F04EB914102D053689B0301D53D4B28
:102FA00000E03B4B5943016051680F2303EA1111C4
:102FB000394B5C5C0168E14041605468072505EAD3
:102FC00014241C5D21FA04F48460546805EAD424B6
:102FD0001B5DD940C1605268032303EA92322E4B35
:102FE0001B1F9A5CB1FBF2F1016130BD234A00293D
:102FF000516901D0014300E08143516170471F4A8C
:103000000029916901D0014300E08143916170473B
:103010001A4A0029D16901D0014300E08143D161FE
:103020007047164A0029D16801D0014300E081436E
:10303000D1607047114A0029116901D0014300E0B5
:1030400081431161704711494039086070470E494A
:10305000C86470470949C87170470848416A41F01F
:10306000807141627047054A0146002092680A4219
:1030700000D001207047014988727047001002405B
:103080000000FFF8FFFFF6FE0000424280044242CB
:1030900000127A0000093D00BC000020C44910B5B0
:1030A00088420AD101218C032046FFF7BAFF20464F
:1030B000BDE810400021FFF7B4BFBE49884202D1ED
:1030C00001214C0410E0BC49884202D101218C044A
:1030D0000AE0BA49884202D10121CC0404E0B8498F
:1030E00088420AD101210C052046FFF7A3FF2046A4
:1030F000BDE810400021FFF79DBF10BD30B504466C
:10310000008A85B00D464CF6FF710840E9880143FE
:103110002182A0894EF6F3110840A9882A8911431B
:103120006A8902431143A181A08A4FF6FF410840FA
:10313000A9890143A1826846FFF716FF9C48844293
:1031400001D1039800E00298A189090400EBC001B5
:1031500001EB0010296801D5490000E08900B0FBAF
:10316000F1F06422B0FBF2F109010B096FF01805D0
:103170006B4300EB8300A3891D044FF0320306D597
:1031800003EBC000B0FBF2F000F0070005E003EB3A
:103190000010B0FBF2F000F00F000843208105B0F2
:1031A00030BD4FF41651016000218180C180018142
:1031B0000C2242818181704710B5028A4FF2FF03D1
:1031C0001A400B884C8823438C88C9880C432343BE
:1031D0001343038210BD0021018041808180C180A2
:1031E00070470029818902D041F4005101E021F4A7
:1031F00000518181704710B5C1F3421301F01F04E3
:103200000121A140012B07D0022B07D01430002A46
:10321000026805D00A4304E00C30F8E71030F6E706
:103220008A43026010BD002A828A01D00A4300E06E
:103230008A4382827047028A22F00F020282028A47
:103240000A4302827047828922F400628281828965
:103250000A43828170470029818902D041F002012E
:1032600001E021F0020181817047028A22F02002F0
:103270000282028A0A43028270470029018A02D030
:1032800041F4804101E021F4804101827047C1F3A3
:103290000801818070478088C0F3080070478189E9
:1032A00041F0010181817047028BD2B20283028B0F
:1032B00042EA012101837047028B02F47F420283BC
:1032C000028B0A43028370470029818A02D041F0B1
:1032D000200101E021F02001818270470029818ACC
:1032E00002D041F0100101E021F01001818270470D
:1032F0000029818A02D041F0080101E021F0080193
:10330000818270470029818902D041F4004101E0A7
:10331000C1F30E01818170470029818A02D041F4F6
:10332000006101E021F4006181827047828A22F00D
:1033300004028282828A0A43828270470029818A3B
:1033400002D041F0020101E021F0020181827047C8
:103350000246002012880A4200D001207047C9436B
:103360000180704770B501F01F0501260024C1F3EC
:10337000421306FA05F2012B0FD0022B0FD0838ADD
:103380004FEA11210088134206FA01F600EA06000E
:1033900001D000B10124204670BD8389F0E7038A83
:1033A000EEE70A0A01219140C943018070470000FD
:1033B000003801400044004000480040004C0040FC
:1033C00000500040F94910B5884202D10121C414CF
:1033D00086E0B0F1804F09D0F54988420DD1012136
:1033E0000220FFF727FE0021022064E001210846A9
:1033F000FFF720FE002101205DE0EE49884206D162
:1034000001210420FFF716FE0021042053E0EA49C1
:10341000884206D101210820FFF70CFE0021082078
:1034200049E0E649884206D101211020FFF702FE5B
:10343000002110203FE0E249884206D101212020EE
:10344000FFF7F8FD0021202035E0DE49884202D157
:103450000121441444E0DC49884202D10121CC041A
:103460003EE0DA49884202D101210C0538E0D84912
:10347000884202D101214C0532E0D649884206D16A
:1034800001214020FFF7D6FD0021402013E0D24962
:10349000884206D101218020FFF7CCFD0021802049
:1034A00009E0CE4988420AD1841501212046FFF760
:1034B000C1FD00212046BDE81040FFF7BBBDC84953
:1034C000884202D101210C040AE0C649884202D197
:1034D00001214C0404E0C44988420AD101218C0432
:1034E0002046FFF79EFD2046BDE810400021FFF773
:1034F00098BD10BD30B50288AC4CB24DA0420DD085
:10350000A8420BD0B0F1804F08D0A94B984205D00B
:10351000A84B984202D0A84B984203D122F07003E6
:103520004A881A43A54B984206D0A54B984203D02F
:1035300022F44073CA881A4302808A8882850A88E6
:103540000285A0420AD0A84208D0A54A904205D0E0
:10355000A44A904202D0A44A904201D1097A01863D
:103560000121818230BD30B5028C22F0010202843B
:10357000028C8388048B22F0020224F073050C88ED
:103580002C430D8915434A882A43884DA8420BD005
:103590008C4DA84208D0924DA84205D0914DA8422A
:1035A00002D0914DA8420DD122F008054A8923F49A
:1035B00040732A4322F004058A882A438D891D43DB
:1035C000CB892B4383800483C9888186028430BDE4
:1035D00070B5028C22F010020284028C8388048B66
:1035E0000D8824F4E6464FF6FF7404EA05253543BA
:1035F0000E8922F0200204EA061616434A8804EADD
:1036000002123243694EB04202D06E4EB04215D122
:1036100022F080064A8923F4406304EA021232430E
:1036200022F040068A8804EA021232438E8904EAB4
:1036300086061E43CB8904EA8303334383800583D4
:10364000C9880187028470BD70B5028C22F4807233
:103650000284028C8388848B0D8824F073042543B4
:103660000E894FF6FF7422F4007204EA0626164310
:103670004A8804EA022232434C4EB04202D0514EF4
:10368000B04215D122F400664A8923F4405304EA7B
:103690000222324322F480668A8804EA02223243FC
:1036A0008E8904EA06161E43CB8904EA03133343CA
:1036B00083808583C9888187028470BD70B5028C40
:1036C00022F480520284058C8288838B0C8823F438
:1036D000E6464FF6FF7303EA0424344325F400560C
:1036E0000D8903EA053535434E8803EA06362E4335
:1036F0002E4DA84202D0334DA84205D122F4804578
:103700008A8903EA82122A4382808483C988A0F8C6
:103710004010068470BD828B22F440628283828BCB
:103720004FF6FF7303EA01210A4382837047828BBD
:1037300022F00C028283828B0A4382837047028BC1
:1037400022F440620283028B4FF6FF7303EA0121E9
:103750000A4302837047F0B5048C24F010040484FB
:10376000078B048C4FF6FF7527F4734705EA033384
:103770003B4305EA02221A430C4B05EA0116984224
:103780000ED0104B98420BD0B0F1804F08D0084BB0
:10379000984205D0074B984202D0074B984225D15A
:1037A00024F02001314341F0100124E0002C0140BD
:1037B0000004004000080040000C004000100040E1
:1037C0000014004000340140004C01400050014012
:1037D0000054014000180040001C00400020004040
:1037E00000400140004401400048014024F0A00393
:1037F0000B4343F0100102830184F0BD028B22F0E1
:103800000C020283028B0A430283704770B5048C5A
:1038100024F001040484058B048C4FF6FF7606EA3D
:103820000313134325F0F305F84A2B4390420ED0BF
:10383000F74A90420BD0B0F1804F08D0F54A904241
:1038400005D0F54A904202D0F44A904202D124F0C9
:10385000020201E024F00A020A4342F0010103835C
:10386000018470BD2DE9F84F0D4604460888E74FE6
:10387000DFF89CC3DFF89C83DFF89C934988AA8813
:103880002B894FF0804A48B304282FD04FF6FF769B
:103890000828934632D0208C9E4620F48050208405
:1038A000A38B208C06EA0132009223F4734306EACC
:1038B0000B221A4306EA0E331343BC420AD0644576
:1038C00008D0544506D0444504D04C4502D0D34AD4
:1038D000944242D120F40050009940E02046FFF786
:1038E00095FFE9882046BDE8F84F87E72046FFF7B7
:1038F00032FFE9882046BDE8F84F20E7208C20F40D
:1039000080702084B4F81CE0208C06EA031306EAD9
:1039100001222EF0F30E43EA0B0343EA0E0300925A
:10392000BC420AD0644508D0544506D0444504D072
:103930004C4502D0B94A944203D120F4007000995A
:1039400001E020F42060084340F48070A3832084C9
:10395000E9882046BDE8F84FE9E620F40240084334
:1039600040F48050A3832084E9882046BDE8F84FC6
:10397000D1E62DE9F0410C4600264988074601258D
:1039800001B90226A288012A00D1022520882389B4
:103990000028384610D0FFF7DEFEE1883846FFF7F2
:1039A000CEFE23892A4631463846FFF72FFFE188AD
:1039B0003846BDE8F04121E7FFF728FFE1883846A7
:1039C000FFF71CFF23892A4631463846FFF7C3FE1E
:1039D000E1883846BDE8F041B1E610B50A884B8869
:1039E000CC881A438B8823431A430B891A434B898B
:1039F00089891A430A43A0F8442010BD4FF6FF718D
:103A0000818000210180C1804180017270470021C6
:103A1000018041808180C180018141818181C1819A
:103A2000704700210180418001228280C180018194
:103A300070470021018041808180C18001814181E6
:103A4000818170470029018802D041F0010101E025
:103A500021F0010101807047002930F8441F02D095
:103A600041F4004101E0C1F30E0101807047002ADA
:103A7000828901D00A4300E08A43828170478182B3
:103A800070471143A0F848107047002A828901D07E
:103A90000A4300E08A4382817047018921F00701CF
:103AA00001817047028922F070020A430281704747
:103AB00000B50346FFF7F6FF188940F007001881AC
:103AC00000BD70B516460D46602904464FF0010250
:103AD00031460AD0FFF79AFE29462046FFF7E2FF5B
:103AE000208940F00700208170BDFFF734FEF3E726
:103AF00030B504894FF6FF7505EA03231343E4B29A
:103B00000B432343038130BD10B50446FFF7F0FF9C
:103B1000208940F07700208110BD10B50446FFF7E2
:103B2000E7FF208940F48040208110BD018582821A
:103B30007047028822F070020A430280704770B515
:103B40000589048B068C25F007050D434FF6FC41D3
:103B50000C4040F201110C434FF6FF7101EA0311D2
:103B600026F022061143314305810483018470BD90
:103B7000028B22F070020A4302837047028B4FF6D9
:103B8000FF7322F4E04203EA0121114301837047ED
:103B9000828B22F070020A4382837047828B4FF639
:103BA000FF7322F4E04203EA01211143818370474D
:103BB0000029018802D041F0800101E021F080015C
:103BC000018070470029818802D041F0040101E0A2
:103BD00021F00401818070470029818802D041F0E2
:103BE000080101E021F008018180704700298188E7
:103BF00002D041F0010101E021F001018180704714
:103C0000028B22F008020A4302837047002C014015
:103C1000003401400004004000080040000C004057
:103C2000028B4FF6FF7322F4006203EA0121114375
:103C30000183EAE7828B22F008020A438283E4E7E9
:103C4000828B4FF6FF7322F4006203EA01211143D5
:103C50008183DAE7028B22F004020A430283D4E76D
:103C6000028B4FF6FF7322F4806203EA01211143B5
:103C70000183CAE7828B22F004020A438283C4E7ED
:103C8000828B4FF6FF7322F4806203EA0121114315
:103C90008183BAE7028B22F080020A430283B4E7F1
:103CA000028B4FF6FF73C2F30E0203EA01211143A8
:103CB0000183AAE7828B22F080020A438283A4E771
:103CC000828B4FF6FF73C2F30E0203EA0121114308
:103CD00081839AE7028C22F002020A43028494E76D
:103CE000028C22F008020A4302848EE7028C4FF60F
:103CF000FF7322F0200203EA01111143018484E7DB
:103D0000028C4FF6FF7322F0800203EA0111114387
:103D100001847AE7028C4FF6FF7322F4007203EA03
:103D200001211143018470E7028C4FF6FF7322F4E6
:103D3000006203EA01211143018466E7028C4FF619
:103D4000FF7322F4005203EA0131114301845CE75E
:103D500010B50123048C8B409C430484038C8A405F
:103D60001343038410BD10B50423048C8B409C4383
:103D70000484038C8A401343038410BD30B50124AE
:103D8000058C00F118038C40A543058489B10829EE
:103D90000FD0091FC1F34E001844016821F4E0411F
:103DA000016001684FF6FF7303EA022211430160CC
:103DB00030BD03EB5100016821F070010160016822
:103DC000F4E70029018802D041F0020101E021F06E
:103DD0000201018019E70029018802D041F00401A5
:103DE00001E021F0040101800FE70029818802D061
:103DF00041F0800101E021F08001818005E7028827
:103E000022F00802028002880A430280FDE68288CE
:103E100022F07002828082880A438280F5E602895D
:103E200022F00702028102890A430281EDE602893B
:103E300022F08002028102890A430281E5E6818440
:103E4000E3E68185E1E68186DFE60187DDE68187BD
:103E5000DBE6A0F84010D8E6028822F44072028027
:103E600002880A430280D0E6808ECEE6008FCCE640
:103E7000808FCAE6B0F84000C7E6808CC5E6008DAA
:103E8000C3E602460020128A0A4200D00120BCE6A6
:103E9000C9430182B9E602460020138A92890B4287
:103EA00002EA010202D0002A00D00120ADE6C94397
:103EB0000182AAE6C54910B5884202D10121441504
:103EC0000AE0C349884202D10121041504E0C14936
:103ED00088420AD10121CC032046FFF7A2F82046F0
:103EE000BDE810400021FFF79CB810BD10B5426836
:103EF000B94B0C791A400B6842EA04221343436021
:103F00008268B64B1A40D1E9024323434C7942EA16
:103F1000440213438360C26A097C22F47002491E82
:103F2000C9B242EA0151C16210BD002101600171B4
:103F300041718160C160012101747047002981686D
:103F400002D041F0010101E021F0010181607047E0
:103F50000029816802D041F4807101E021F4807170
:103F600081607047002A4268C9B201D00A4300E06C
:103F70008A4342607047816841F008018160704760
:103F8000014600208968090700D501207047816833
:103F900041F00401816070470146002089684907AB
:103FA00000D5012070470029816802D041F4A001AA
:103FB00001E021F4A001816070470146002089687A
:103FC000490200D5012070474268491E22F4604230
:103FD00042EA4131416070470029416802D041F412
:103FE000006101E021F400614160704770B507266F
:103FF00009290AD9C568A1F10A0404EB4404A640C2
:10400000B543A3401D43C56007E0056901EB4104CA
:10401000A640B543A3401D4305611F23072A09D2CB
:10402000446B521E02EB820293409C4391400C432E
:10403000446370BD0D2A09D2046BD21F02EB8202C9
:1040400093409C4391400C43046370BDC46A0D3A95
:1040500002EB820293409C4391400C43C46270BDCA
:104060000029816802D041F4801101E021F480111F
:1040700081607047C06C80B2704754484C30006813
:1040800070470029416802D041F4806101E021F4C9
:104090008061416070470029416802D041F480513D
:1040A00001E021F4805141607047826822F4E042CF
:1040B0000A43826070470029816802D041F40041C0
:1040C00001E021F40041816070470029816802D03D
:1040D00041F4021101E021F40211816070470146B0
:1040E00000208968890200D50120704770B5072635
:1040F00009290AD9C568A1F10A0404EB4404A640C1
:10410000B543A3401D43C56007E0056901EB4104C9
:10411000A640B543A3401D430561836BC3F301541F
:10412000121B921C02EB82021F249440A343914075
:104130000B43836370BD826B491E22F4401242EA36
:1041400001518163704708B508440090026008BDC2
:1041500008B5084428300090006880B208BD426865
:104160001F4B1A400A4342607047416282627047A7
:10417000426822F01F020A43426070471349083127
:104180000028086802D040F4000001E020F400009C
:10419000086070470246002012680A4200D00120E1
:1041A0007047C9430160704710B50246002054684B
:1041B0000B0AC9B20C401168194202D0002C00D081
:1041C000012010BD6FEA11210160704700240140F9
:1041D00000280140003C0140FFFEF0FFFDF7F1FF29
:1041E000FFFD3FFFFE4910B588424FF0010101D1AC
:1041F0004C0601E04FF080642046FEF71BFF20468E
:10420000BDE810400021FEF715BF10B5036800227D
:1042100023F002030360036843F0010303604FF6D9
:10422000FF7300E0521C4468E40701D19A42F9D1BF
:104230004268D2073ED08A79012A02683CD022F037
:1042400080020260CA79012A026838D022F0400256
:1042500002600A7A012A026834D022F02002026049
:104260004A7A012A026830D022F0100202608A7A6B
:10427000012A02682CD022F008020260CA7A012AC0
:10428000026828D022F0040202608A78CC78920773
:1042900042EA04620C7942EA04424C79098842EA13
:1042A0000452491E0A43C261016821F00101016004
:1042B000002114E0002010BD42F08002C1E742F06E
:1042C0004002C5E742F02002C9E742F01002CDE704
:1042D00042F00802D1E742F00402D5E7491C4268E7
:1042E000D20701D09942F9D14068C007E2D101203C
:1042F00010BDF0B5827ABB4D012191402A6842F091
:1043000001022A60B74E1C3632688A433260B54AD1
:10431000047BB54B0C32A4B914688C4314604488F8
:10432000C78844EA0744877A03EBC707C7F84046C3
:104330000488878844EA0744877A03EBC707C7F8ED
:104340004446047B012C12D114680C431460847A17
:10435000026803EBC4044FEA3242C4F84026847A70
:10436000426803EBC4034FEA3242C3F844269D4A35
:10437000C37A121D002B136806D00B431360994AB1
:104380000389143213B104E08B43F7E713688B43BE
:1043900013600389012B02D113680B431360407B28
:1043A000012802D1306808433060286820F00100FD
:1043B0002860F0BD00218171C1710172417281726A
:1043C000C1728170C170032101710221417101210B
:1043D0000180704783490A6842F001020A600A6856
:1043E00043F60E739A430A600A6842EA00200860A6
:1043F000086820F00100086070470029016802D0B9
:1044000041F4803101E021F48031016070470029DE
:10441000016813D041F080010160D0F8841141F4AB
:104420008071C0F88411D0F8941141F48071C0F803
:104430009411D0F8A41141F4807112E021F08001B0
:104440000160D0F8841121F48071C0F88411D0F893
:10445000941121F48071C0F89411D0F8A41121F4C2
:104460008071C0F8A411704730B5024600209368EF
:104470005B0108D49068000101D5012003E0906839
:10448000C00037D5022002EB0012D2F8803103F0D1
:104490000103C2F880310B7A73B3D2F880414D68C2
:1044A0001C434B7A43EAC5031C43C2F880418B7A14
:1044B00003F00F038B72D2F8843123F00F03C2F89C
:1044C0008431D2F884318C7A2343C2F88431CB7A98
:1044D000CC6843EA0423C2F88831CB7B096943EAFC
:1044E0000121C2F88C11D2F8801141F00101C2F80B
:1044F000801130BD042030BDD2F880314C7A234386
:104500000C8843EA4453C2F88031D0E7002221B13D
:10451000012905D0022906D112E08268334801E062
:104520008268334802403349501A8A4214D00ADC68
:10453000A2B16FF0806010180FD002280CD10FE0EC
:1045400082682D48EEE7B0F5007F09D02B4940186E
:1045500003D0B0F5003F03D0002070470220704721
:104560000120704741B101290AD0022903D1816895
:1045700041F4000181607047816841F08001F9E7F2
:10458000816841F40041F5E710B500EB0113D3F861
:10459000B04114F004041472D3F8B04145D0E408DB
:1045A0005460D3F8B04104F002045472D3F8B4411B
:1045B00004F00F049472D3F8B441240AD474D3F8ED
:1045C000B841D472D3F8B841240A1473D3F8B8416F
:1045D000240C5473D3F8B841240E947310E00000F7
:1045E00000640040006600400060004003000004DA
:1045F0000003000800010008000003100001FFF79D
:10460000D3F8BC41D473D3F8BC41240A1474D3F852
:10461000BC41240C5474D3F8BC311B0E937439B1D3
:10462000016941F02001016110BD640D1460B8E71B
:10463000C16841F02001C16010BD21B1016941F0A4
:10464000200101617047C16841F02001C1607047DD
:104650000246002029B1012902D1106900F00300AF
:104660007047D068FAE700234FF6FF7221B10129A5
:1046700017D0022924D03AE0016821F0020141F06C
:104680000101016000E0521E416801F003010129AF
:1046900001D0002AF7D1406800F00300012823D19F
:1046A00024E0016821F00301016000E0521E41682E
:1046B000890701D0002AF9D14068800714D115E09C
:1046C000016821F0010141F00201016000E0521E89
:1046D000416801F00301022901D0002AF7D14068A6
:1046E00000F00300022801D0002300E00123184657
:1046F00070470268002122F0010242F002020260CB
:10470000406800F00300022800D1012108467047EC
:1047100002684FF6FF71002322F00202026000E0FF
:10472000491E4268920701D50029F9D140688007E7
:1047300000D40123184670478069C0F302100001BD
:1047400070478069000E70478069C0F3074070476A
:10475000002A426901D00A4300E08A43426170475F
:104760000246002011F4700F03D0926904E001208A
:104770007047CB0104D552680A401103F7D1704746
:104780000B0101D59268F7E78B0101D5D268F3E7F9
:104790001269F1E7534A914202D1002181617047C9
:1047A000C1F313028B0101D5C26070474B0101D5E3
:1047B00002617047090101D582607047426070470D
:1047C0000246002053690B424AD0B1F5807F3BD0AE
:1047D00013DC08292ED007DC012926D0022927D096
:1047E00004293DD1D0682BE0102925D0202926D0DE
:1047F000402935D11069102130E0B1F5004F2BD0A0
:104800000BDCB1F5007F22D0B1F5806F22D0B1F57D
:10481000006F25D19069702120E0B1F5803F11D063
:10482000B1F5003F1CD15068E5E790682E4915E0CE
:10483000D06802E0D068DEE7106903210EE010695D
:1048400008210BE05068FBE79069012106E09069C0
:10485000022103E0906900E05068042100F03BB8B9
:10486000704730B5082310240422B1F5007F1DD015
:1048700010DC202929D007DC012921D0042922D0ED
:10488000082900D1C46030BD402920D0B1F5807F17
:10489000F9D10BE00025B1F5004F06D008DCB1F5E9
:1048A000806F03D0B1F5006FEDD18561426030BDFE
:1048B000B1F5803F0DD0B1F5003FF8D1446030BD77
:1048C0000949816030BDC36030BD036130BD046102
:1048D00030BD436030BD024600200A4200D00120B6
:1048E000704700007000F0300101010010B5012098
:1048F000FEF7A9FBBDE810400020FEF7A4BB1F494E
:10490000086070471D49091F086070471B498431C2
:10491000086070471A4A118821F4607101431180C0
:104920007047174A118821F07F01014311807047B9
:10493000134A08B52C3A10440090016008BD104994
:1049400008B52C3908440090008808BD0B489C30FD
:104950000068C0B270470A480830018841F0010180
:10496000018070470548A0300068C0B27047044815
:104970000830018841F002010180704704860D4231
:104980002C6C004010B501210C072046FEF752FBAD
:104990002046BDE810400021FEF74CBB21490862CB
:1049A00070472049086170471F4A116821F0E001F3
:1049B0000143116070471B49C1F8A00070471A4BB2
:1049C0001A6822F0030202431A601848026842F093
:1049D00004020260012905D020BF016821F0040112
:1049E0000160704730BFF8E70F48016841F00401EB
:1049F0000160016841F0020101600C48016841F06A
:104A00000401016030BF7047074A01460020526828
:104A10000A4200D00120704703490A6842EA800038
:104A20000860704700000E420070004010ED00E08A
:104A300000F108014FF0FF32C0E90112C1600161CD
:104A400000210160704700210161704742684A609F
:104A500093688B6093685960916008610168491C94
:104A60000160704730B50C68621C02D000F108028A
:104A700002E0026904E01A4653681D68A542FAD9AB
:104A800053684B6099608A60516008610168491CF5
:104A9000016030BDD0E9013201699A60D0E901239B
:104AA0005A604A68824201D182684A6000220261EB
:104AB0000868401E0860704770B50D46040005D1B7
:104AC00040F21B12F2A1F7A003F026FE02F0ECF96F
:104AD000D4E90F20216802FB001161600021A1636D
:104AE0002168A1600A46D4E90F01401E00FB0121A4
:104AF000E16021464FF0FF3001F8440F487004F1A7
:104B000010004DB1FFF794FF04F12400FFF790FF70
:104B100002F0E4F9012070BD21690029F8D001F00C
:104B2000A3FA0028F4D0E3494FF080500860BFF3A7
:104B30004F8FBFF36F8FEBE72DE9F04117460E461D
:104B4000050005D14FF4C472D1A1D6A003F0E4FD55
:104B5000BEB105FB06F0543002F056FA04000ED048
:104B600004F154007EB12060C4E90F5620460121B3
:104B7000FFF7A2FF84F8507000212046A164BDE831
:104B8000F0810020E7E72460EEE72DE9F041856B36
:104B9000174604460026026C82B1C7B1E06803F0F4
:104BA000B8FEE168206C091AE1602268914202D2E5
:104BB0006168081AE060022F16D017E02068A8B9D3
:104BC000606801F062FB0646002060600EE0A068AD
:104BD00003F09FFE216CA0680844A06061688842D1
:104BE00004D32068A06001E005B16D1E6D1CA563B3
:104BF0003046C4E72DE9F3410F4600980026846C47
:104C00002CB940F6CE12A2A1A6A003F085FDA06BA0
:104C1000E16B884205D340F6CF129DA1A1A003F01D
:104C20007BFDA06BE16B88420CD294F945503A466B
:104C300069462046FFF7A9FF0646681C05D06D1C93
:104C400084F845503046BDE8FC81606A0028F9D000
:104C500004F1240001F008FA0028F3D00126F1E75E
:104C60002DE9F041044602F01FF994F9455004F192
:104C7000240610E0A06C20B100212046FFF7BAFF07
:104C800004E0606A48B1304601F0EEF908B101F085
:104C9000A4FA6D1E6DB2002DECDC4FF0FF3684F8E7
:104CA000456002F01BF902F0FFF894F9445004F15A
:104CB000100709E0206948B1384601F0D5F908B17C
:104CC00001F08BFA6D1E6DB2002DF3DC84F84460A8
:104CD000BDE8F04102F002B92DE9FF4F83B09946DB
:104CE0008B4604004FF0000605D140F2D92268A19E
:104CF0006CA003F011FDBBF1000F07D1206C28B1AF
:104D000040F2DA2262A167A003F006FDB9F1020FBA
:104D100008D1E06B012805D040F2DB225CA161A044
:104D200003F0FAFC01F068FA38B9059828B140F2AE
:104D3000DE2257A15BA003F0EFFC4FF0000A4FF01A
:104D40008057DFF8708102F0AFF8A06BE16B88420A
:104D500006D3B9F1020F03D0059800B316B325E0CE
:104D60004A4659462046FFF710FFA16C21B149463B
:104D70002046FFF73FFF05E0616A19B104F1240006
:104D800001F072F928B1C8F80070BFF34F8FBFF37C
:104D90006F8F02F0A3F8012007B0BDE8F08F02F09A
:104DA0009DF821E0684601F0CEF9012602F096F860
:104DB00000F09BFD02F078F894F94400401C01D10A
:104DC00084F844A094F94500401C01D184F845A022
:104DD00002F084F805A9684601F0C6F930B1204612
:104DE000FFF73EFF00F0F3FC0020D5E702F05CF88F
:104DF000A06BE16B884201D1012500E0002502F0A3
:104E00006DF895B104F11000059901F0D4F8204631
:104E1000FFF726FF00F0DBFC002894D1C8F80070F3
:104E2000BFF34F8FBFF36F8F8DE72046FFF718FF5B
:104E300000F0CDFC87E710B5024600210120FFF706
:104E40007BFE041E07D00021416001600B460A462C
:104E5000C160FFF741FF204610BD10B5040005D129
:104E600040F241220AA10FA003F056FC01F0C1F963
:104E70006168884220D1E068401EE06005D10023CF
:104E80001A4619462046FFF727FF012010BD0000F3
:104E90002E2E5C4672656552544F535C7175657574
:104EA000652E63004572726F723A25732C25640D6E
:104EB0000A00000004ED00E00020E7E730B4026CD7
:104EC0000B46002A0BD0C1681144C1604468A1425E
:104ED00001D30168C16030BC184603F01ABD30BC74
:104EE00070472DE9FF4F83B09B468A4604004FF080
:104EF000000607D140F2DC42AFF26C01AFF25C0079
:104F000003F00AFCBAF1000F09D1206C38B140F26D
:104F1000DD42AFF28401AFF2740003F0FDFB01F05B
:104F20006BF948B9059838B14FF49C62AFF2A00113
:104F3000AFF2900003F0F0FB4FF000094FF0805704
:104F4000DFF8188601F0B0FFA56B35B35146204657
:104F5000E668FFF7B3FFBBF1000F11D0E660606AAF
:104F600050B104F1240001F07FF828B1C8F80070B6
:104F7000BFF34F8FBFF36F8F01F0B0FF01200BE73E
:104F80006D1EA563206810B901F02FFA60602069DA
:104F90000028F1D004F11000E5E7059808B11EB132
:104FA00006E001F09BFF27E0684601F0CCF80126FF
:104FB00001F094FF00F099FC01F076FF94F94400B1
:104FC000401C01D184F8449094F94500401C01D163
:104FD00084F8459001F082FF05A9684601F0C4F805
:104FE000002820460AD0FFF73BFE00F0F0FB2046E9
:104FF00000F0A6FA0028A5D00020CDE600F0A0FA27
:10500000D8B1206830B901F04FFF606801F0FFF8B7
:1050100001F064FF04F12400059900F0CCFF204664
:10502000FFF71EFE00F0D3FB00288BD1C8F80070FC
:10503000BFF34F8FBFF36F8F84E72046FFF710FE5B
:1050400000F0C5FB7EE770B50D46040007D14FF4B4
:105050001E72AFF2C411AFF2B41003F05DFB01F0A9
:10506000C8F86168884204D1E068401CE060012013
:1050700070BD00232A4619462046FFF732FF00285C
:10508000F6D0E168491CE16070BD70B50C460500C2
:1050900007D140F2BD22AFF20821AFF2F81003F0C1
:1050A0003BFBAC4207D940F2BE22AFF21C21AFF26B
:1050B0000C2003F031FB022200212846FFF73CFDC3
:1050C000002800D0846370BD2DE9F047984615464E
:1050D0008946040007D140F29F32AFF24C21AFF273
:1050E0003C2003F019FBB9F1000F09D1206C38B155
:1050F0004FF46872AFF26821AFF2582003F00CFB56
:10510000B8F1020F0AD1E06B012807D040F2A132BA
:10511000AFF28421AFF2742003F0FEFA01F003FF36
:105120005020EFF3118780F31188BFF34F8FBFF347
:105130006F8FA06BE16B884207D3B8F1020F04D0E8
:10514000002087F31188BDE8F08794F94560424656
:1051500049462046FFF719FD701C04D0761C84F8E0
:1051600045600120EDE7A06C012620B141462046B4
:10517000FFF740FD06E0606A0028F2D004F1240049
:1051800000F072FF0028ECD0002DEAD02E60E8E796
:105190002DE9F0410D46040007D140F23C42AFF248
:1051A0001031AFF2003003F0B7FA206C38B14FF491
:1051B0008862AFF22431AFF2143003F0ADFA206808
:1051C00048B9606838B140F24542AFF23C31AFF2C5
:1051D0002C3003F0A1FA01F0A6FE5020EFF3118667
:1051E00080F31188BFF34F8FBFF36F8FA16BE06B1C
:1051F00088421FD994F94500491CA163411C04D081
:10520000401C84F84500012015E0A06C012720B166
:1052100000212046FFF7EEFC06E0606A0028F2D08D
:1052200004F1240000F020FF0028ECD0002DEAD08B
:105230002F60E8E7002086F31188A0E42DE9F0470D
:1052400090468946040007D14FF4B462AFF2C031F2
:10525000AFF2B03003F060FAB9F1000F09D1206C61
:1052600038B140F2A152AFF2D831AFF2C83003F0FA
:1052700053FA01F058FE5020EFF3118780F31188A4
:10528000BFF34F8FBFF36F8FA66BF6B194F9445005
:1052900049462046FFF712FE761EA663681C04D01E
:1052A0006D1C84F84450012010E020690028FAD0D9
:1052B00004F1100000F0D8FE0028F4D0B8F1000F7F
:1052C000F1D00121C8F80010EDE7002087F3118824
:1052D00039E72DE9F0410E46040007D140F2FC52B7
:1052E000AFF25441AFF2444003F016FA4EB9206CCD
:1052F00048B140F2FD52AFF26841AFF2584003F0BE
:105300000BFA206C38B940F2FE52AFF27C41AFF29A
:105310006C4003F001FA01F006FE5020EFF3118516
:1053200080F31188BFF34F8FBFF36F8FA06B30B145
:1053300031462046E768FFF7C1FD0120E76085F3AD
:1053400011881CE410B5040007D140F22F62AFF2BF
:10535000C041AFF2B04003F0DFF901F0A5FDA46B4E
:1053600001F0BCFD204691E510B5040007D140F2E4
:105370004162AFF2E441AFF2D44003F0CDF901F065
:1053800093FDD4E90E10441A01F0A8FD20467DE5F6
:1053900010B5040007D140F25162AFF20C51AFF2E8
:1053A000FC4003F0B9F9A06B70E56D4A002102EBF7
:1053B000C1035B68834206D1002042F8310002EB52
:1053C000C10148607047491C0829F0D3704710B5E7
:1053D000040007D140F25D62AFF24C51AFF23C5095
:1053E00003F09AF92046FFF7E0FF2046BDE81040A1
:1053F00001F075BEC06C7047C164704790F85000F2
:10540000704710B5040007D140F29372AFF280519B
:10541000AFF2705003F080F9A06B08B1002035E5C1
:10542000012033E510B5040007D140F2BA72AFF2A3
:10543000A051AFF2905003F06FF9A06BE16B88427E
:1054400001D1012022E5002020E510B5444B0022C7
:1054500053F832401CB1521C082AF9D316E543F820
:10546000321003EBC201486010E510B500243C4A3D
:10547000214602EBC1035B68834202D152F83140FE
:1054800002E0491C0829F4D32046FFE470B5154614
:105490000E46044601F008FD94F944100020491C12
:1054A00001D184F8440094F94510491C01D184F8D5
:1054B000450001F013FDA06B28B92A46314604F1DE
:1054C000240000F0B6FD2046BDE87040FFF7C8BBE1
:1054D00000220421FFF730BB70B50D46044601F0F1
:1054E000E3FCA06C08B9A06B08B1002401E0A5643E
:1054F000012401F0F3FC204670BD10B50446806C19
:10550000884201D1A06B08B10020BFE401F0CCFCBF
:105510000020A06401F0E2FC0120B7E408B50023FC
:105520000A4669460093FFF7DCFC009808BD08B501
:1055300000210A4600916946FFF780FE009808BDE9
:1055400010B5044601F0B0FCA06B20B1002401F0BE
:10555000C5FC20469AE40124F9E7000004ED00E0D0
:10556000A40600202DE9F041054601F09DFCFE4E09
:10557000B068401CB0603068FC4F10B1706930B347
:105580002BE03560B068012827D1002404EB8400AB
:1055900007EB8000FFF74CFA641C202CF6D3F4488C
:1055A000FFF746FAF2481430FFF742FAF048283085
:1055B000FFF73EFAEE483C30FFF73AFAEC4850303D
:1055C000FFF736FAEA4870631430B06305E03068DC
:1055D000E96AC06A884200D83560706A0121401CBF
:1055E00070626864E86A326981401143316100EB9E
:1055F000800007EB8000291DFFF728FA01F06EFC00
:10560000706900280CD03068E96AC06A884207D205
:10561000D8494FF080500860BFF34F8FBFF36F8FB2
:10562000BDE8F0812DE9FF5F8346DDE90E879946ED
:1056300016468A46900001F0E7FC05001AD05C206F
:1056400001F0E2FC040012D025630021CDE9024103
:10565000CDE900874B4632465146584601F087F85F
:105660002046FFF77FFF012004B0BDE8F09F2846E9
:1056700001F035FD4FF0FF30F6E770B5044601F05C
:1056800013FCB94D04B92C68201DFFF703FA58B973
:10569000E06AB64A00EB800152F8211021B90121DD
:1056A0008140286988432861A06A18B104F1180074
:1056B000FFF7F0F9686A401C68622868844208D1E4
:1056C000AB48211D3C30FFF7C1F96868401C686099
:1056D00007E0A868401EA860204601F0A1F801F08C
:1056E00092F801F0FBFB6869002812D02868844218
:1056F0000FD1286B28B140F265429FA1A3A003F00F
:105700000BF89C494FF080500860BFF34F8FBFF3F8
:105710006F8F70BD2DE9F041934F0026386B38B183
:10572000B869401CB861F86900B10126304677E7D6
:10573000FD686D1CFD6011D1786B006828B140F6E2
:10574000DA128DA191A002F0E7FF786BB96B796353
:10575000B863386A401C386201F055F8B86ADFF85F
:105760000C82854209D3786B006880B1786BC06881
:10577000C468606885420DD2B8623868C06A00EBC0
:10578000800158F821000128CDD90126CBE74FF040
:10579000FF30F1E7201DFFF77DF9A06A18B104F191
:1057A0001800FFF777F9E06A01213A698140114357
:1057B000396100EB800108EB8100211DFFF746F9FC
:1057C000E06A3968C96A8842CDD30126CBE72DE962
:1057D000F047654D00242746286B28B940F2E9724E
:1057E00065A16AA002F098FF01F05EFB286B401EE5
:1057F0002863286BF0BBA8685D4928310126C8B32F
:10580000DFF868918846D8F80010E9B1D8F80C00A4
:10581000C46804F11800FFF73DF9201DFFF73AF9BD
:10582000E06A2A6906FA00F11143296100EB800160
:1058300009EB8100211DFFF709F9E06A2968C96AAF
:105840008842E0D3EE61DEE70CB100F0DCFFAC692A
:105850003CB1FFF75FFF00B1EE61641EF9D100209B
:10586000A861E86930B14349012738070860BFF3F0
:105870004F8F00E001E0BFF36F8F01F02FFB384640
:10588000BDE8F0872DE9F041374E0F460446F56834
:105890003068001DFFF7FEF838B9306890F82C101A
:1058A00001208840316981433161601C08D13FB1DA
:1058B0003168BDE8F0412E485030091DFFF7C6B8E9
:1058C00030682C44AC424460316805D2B06BBDE80E
:1058D000F041091DFFF7C6B8706B091DFFF7C2F84C
:1058E000B06A844200D2B4629AE61F48016B491C38
:1058F000016370472DE9F0410E4605004FF00004AA
:1059000005D140F279421CA120A002F005FF2EB97A
:1059100040F27A4218A11DA002F0FEFE124F386B31
:1059200028B140F27B4214A118A002F0F5FEFFF767
:10593000DCFFFA6828688119904202D9884202D8AF
:1059400004E0884201D8914200D9012429601CB1A9
:10595000881A0021FFF796FFFFF739FF002822D1B0
:105960004FF08050034919E0CC000020E4060020ED
:105970006409002004ED00E02E2E5C46726565523D
:10598000544F535C7461736B732E63004572726F76
:10599000723A25732C25640D0A0000000860BFF3DD
:1059A0004F8FBFF36F8F3BE610B5040014D0FE4954
:1059B000096B39B140F2CF42AFF24401AFF234008B
:1059C00002F0AAFEFFF791FF00212046FFF75AFFE1
:1059D000FFF7FDFE002807D1F4494FF08050086022
:1059E000BFF34F8FBFF36F8F10BD70B5050007D1A8
:1059F00040F2FB42AFF28001AFF2700002F08CFE89
:105A0000E94E3068854201D1002070BD01F04CFAAA
:105A10006C6901F063FA706B844202D0B06B84420F
:105A200001D1022070BDE248844204D1A86A002856
:105A3000F7D1032070BDDE481438844202D00CB187
:105A4000012070BD042070BD10B5044601F02CFA91
:105A50000CB9D5480468E46A01F040FA204610BD4C
:105A600010B5044601F05FFA5020EFF3118180F386
:105A70001188BFF34F8FBFF36F8F0CB9CA4804680A
:105A8000E06A81F3118810BD2DE9F04100260D4632
:105A90000446202908D34FF4B062AFF22411AFF2CC
:105AA000141002F039FE1F2501F0FEF9BE4F04B9B3
:105AB0003C68E06CA8423FD03968854206D98C42E8
:105AC00007D03968C96AA94202D902E08C4200D1E4
:105AD0000126E16A8846884200D1E562E564A06952
