:020000040800F2
:100000003007002095010008990100089B010008B5
:100010009D0100089F010008A101000800000000E8
:10002000000000000000000000000000A301000824
:10003000A501000800000000A7010008A9010008B0
:10004000AB010008AB010008AB010008AB010008E0
:10005000AB010008AB010008AB010008D1090008A2
:10006000AB010008AB010008AB010008AB010008C0
:10007000AB010008AB010008AB010008AB010008B0
:10008000AB010008AB010008AB010008AB010008A0
:10009000B3100008AB010008AB010008AB01000879
:1000A000AB0100088F0B0008AB010008AB01000892
:1000B00069090008AB0100081B0A0008AB01000831
:1000C000AB010008AB010008AB010008AB01000860
:1000D000AB010008AB010008AB010008AB01000850
:1000E00081090008AB010008AB01000800F002F82C
:1000F00000F03AF80AA090E8000C82448344AAF188
:100100000107DA4501D100F02FF8AFF2090EBAE885
:100110000F0013F0010F18BFFB1A43F0010318473B
:10012000FC1600001C170000103A24BF78C878C1E4
:10013000FAD8520724BF30C830C144BF04680C60ED
:10014000704700000023002400250026103A28BF35
:1001500078C1FBD8520728BF30C148BF0B60704739
:100160001FB51FBD10B510BD01F081F81146FFF796
:10017000F7FF00F02BF801F09FF803B4FFF7F2FF50
:1001800003BC00F029FA000030BF72B662B680F3FB
:100190000888704708480047FEE7FEE7FEE7FEE7ED
:1001A000FEE7FEE7FEE7FEE7FEE7FEE70348044959
:1001B000044A054B70470000ED00000830010020A4
:1001C00030070020300300203003002008B509204C
:1001D00000F0A9F9482000F049F84FF416514820E2
:1001E00000F014FA4FF41651242000F03CFC41F6C4
:1001F0001F4140F2F31000F0A1FC0020062303226F
:1002000002210090012000F00BFD00F063FA0120B4
:100210001249086020E00120114908700020487050
:100220008870C870087148718871C87140F2811077
:1002300001F005F800240CE00A48005D0A49088036
:1002400000BF0948001F008800F040000028F8D0D7
:10025000641C182CF0DB00BFDDE700009001214298
:100260005D000020B8000020043801404FF0E0217C
:10027000096921F004014FF0E0221161C21700EB7F
:100280005272C2F3C702234B1A701946097801EB68
:100290004102C2EBC1114FF6FF7202EAC1011E4AD0
:1002A0001180704701461B4A12784A434FF0E02301
:1002B0005A6100229A6101221A6100BF4FF0E022C8
:1002C000106900F001021AB100F48032002AF5D062
:1002D00000224FF0E0231A619A61704701460E4AEE
:1002E00012884A434FF0E0235A6100229A610122AA
:1002F0001A6100BF4FF0E022106900F001021AB14C
:1003000000F48032002AF5D000224FF0E0231A6179
:100310009A617047AE000020B0000020A34A0A4056
:100320000243A34B1A6070470146072323EA0102E8
:1003300012029F4B1B1D18684FF6FF0318409D4B80
:10034000184310439A4B1B1D186070472DE9F0416C
:100350000746884614461D462846FFF7E5FFC5F1C7
:10036000040007FA00F60F20284100EA08000643BF
:1003700006F00F06E21704EBD2625211920002F16E
:10038000E022D2F800212146E31704EBD3635B118E
:10039000A4EB431C012303FA0CF31A432046E31792
:1003A00004EBD3635B119B0003F1E023C3F800214E
:1003B0008148005D40EA06107F490855BDE8F0819C
:1003C00070B504460B46CE1701EB9676C6F3870050
:1003D000CE1701EB9676B610A1EB8606B606350E63
:1003E000764B9B6943F00103744EB3614FEAB63319
:1003F00053F820300F26AE40B343714E46F82030FC
:10040000334653F8203004FA05F61E436C4B43F88C
:1004100020606C4B1B6801268E403343694E33606D
:1004200002F0010343B1674B0C331B6801268E4079
:100430003343644E0C36336002F0020343B1614B28
:1004400008331E6801238B401E435E4B08331E6039
:1004500070BD00B5002059490861C860142048618A
:1004600000208861C8610846006840F0010008600B
:1004700008464068544908405049486008460068AA
:10048000524908404D4908600846006820F4802021
:1004900008600846406820F4FE004860002088603C
:1004A00000214FF00060FFF739FF00BD10B5404854
:1004B0000830006840F004003D49083108603F48BA
:1004C000C06940F080503D49C8614148406840F4EF
:1004D00080703F4948600846006840F004000860AA
:1004E0000846006840F002000860FFF74DFE10BDAE
:1004F0003048001D2E49091D086070470146490615
:100500002E4A926942F001022C4B9A612C4A083A19
:10051000526822F0E0622A4B083B5A601A46526841
:100520000A435A60704730B504460025FFF791FF33
:100530002248006840F480302049086000BF1F480E
:100540000068400C0028FAD04FF480601B494860D6
:10055000A01EC4B20846406840EA8440486008468D
:10056000406840F4803048601A48006840F032002B
:10057000184908601148006840F080700F49086011
:1005800000BF0E480068400E0028FAD00B484068B3
:1005900040F002000949486005E008484068C0F39F
:1005A000870505F00305022DF7D130BD80FFFF1F41
:1005B00008ED00E00000FA0500E400E00010024051
:1005C00008000140000401400000FFF8FFFFF6FEB4
:1005D0000070004000200240014600BF704700BF8D
:1005E000384A128802F04002002AF9D0C2B2354BD4
:1005F0001B1D1A8070473349091D088000BF31490F
:10060000098801F040010029F9D070472DE9F05F19
:1006100005460E46300100F0A1FF81462A4905FB40
:1006200001F000F09BFF8246494600F0B5FE074608
:10063000384600F073FF84B2204600F08FFF8346F7
:10064000394601F06BF882464FF0834100F09AFF83
:10065000814600F063FF80464FF6FF7000EA041405
:1006600004EB080084B21948806940F0040017497F
:1006700088610846806940F48040886114480068B9
:1006800020F47F60124908600846006840F40B605F
:1006900008600E48C06840F480400C49C8600846B5
:1006A000C06820F48040C860064808300480001DFF
:1006B000008842F20C01084302490C310880BDE871
:1006C000F09F00000038014040420F00001002403F
:1006D000040801401348806940F004001149886112
:1006E0001148006820F470200F490860084600682F
:1006F00040F440300860704718B900210B4A11607F
:100700000FE00B490968491C094A1160814208D170
:1007100006490968C943074AC2F890110021044AF2
:100720001160704700100240000801409001214212
:10073000B40000200000214210B5BE48C06940F05E
:100740000100BC49C8610846806940F00400886126
:10075000B948006820F0FF00B74908600846006803
:1007600040F044000860C804808940F00100C904DA
:1007700088810846808940F04000888101231C223E
:1007800003211846FFF7E2FD00204FF08041088565
:100790004FF6FF7088850846008820F44070088076
:1007A0000846008820F0600008800846008B40F072
:1007B000010008830846008B40F4807008830846D7
:1007C000008C20F0020008840846008C20F02000F5
:1007D00008840846008940F0030008810846008824
:1007E00040F00100088010BD10B59248806940F0CB
:1007F0000800904988619148006820F0F0008F4916
:1008000008600846006840F080000860081D006825
:1008100020F07040091D08600846006840F0004064
:100820000860032201210846FFF7CAFD03220F21B9
:100830000120FFF7C5FD0223072200210846FFF72C
:1008400085FD0223282200210846FFF77FFD10BD09
:1008500010B57848C06940F004007649C861084680
:10086000806940F0080088617448006820F07F408B
:10087000724908600846006840F088400860704887
:10088000008840F001006E4908800846008840F06A
:100890004000088001231E2203211846FFF756FD61
:1008A000002067491C3108804FF6FF70091D088041
:1008B00063480C38008820F4407061490C39088086
:1008C0000846008820F0600008805D480C300088F1
:1008D00040F001005A490C3108800846008840F475
:1008E0008070088056481430008820F00200544977
:1008F000143108800846008820F020000880504805
:10090000001F008840F003004D49091F08804C4833
:100910000C38008840F0010049490C39088010BDAE
:100920000146022904D003290BD0042918D10EE076
:100930004FF08042928C10B200224FF080439A8494
:1009400010E0404A106800223E4B1A600AE03C4A20
:100950001832128810B20022394B18331A8001E085
:10096000002000BF00BF70474FF08040008A4FF06A
:100970008040008A20F001004FF0804108827047DB
:100980004FF40040304908603048006801280FD11A
:100990002E483838006828B92A480068401C294980
:1009A000086014E027480068401E264908600EE0F1
:1009B00026483838006828B922480068401E214976
:1009C000086004E01F480068401C1E49086070472A
:1009D00002201D4908601D483838006870B91B485E
:1009E000006828B917480068401C1649086013E0E1
:1009F00014480068401E134908600DE01348006861
:100A000028B910480068401E0E49086004E00D48EF
:100A10000068401C0B49086070470948001D0088A9
:100A20000748001D008820F001000549091D0880C5
:100A3000704700000010024000080140000C014017
:100A40000C08004014000020140401403C812142A5
:100A50003649088000BF3549091F098801F0400167
:100A60000029F8D070472DE9F05F05460E463001A9
:100A700000F074FD81462E4905FB01F000F06EFD8B
:100A80008246494600F088FC0746384600F046FD9D
:100A900084B2204600F062FD8346394600F03EFEF7
:100AA00082464FF0834100F06DFD814600F036FD37
:100AB00080464FF6FF7000EA041404EB080084B28D
:100AC0001C48806940F004001A4988610846C069E2
:100AD00040F40030C8611848006820F47F4016498F
:100AE00008600846006840F40B40086012480C306B
:100AF000006840F4806010490C3108600D480069BE
:100B000040F480200B4908610846006920F48020E9
:100B100008610648001D0480001D008842F20C0197
:100B20000843024908310880BDE8F09F04440040B2
:100B300040420F00001002400008014070B5054619
:100B40000C463048806940F400602E4988612E4888
:100B50000580001F04802C482038008840F00100E8
:100B60002949203908800846008840F04000088064
:100B700025482C38008840F0010023492C39088092
:100B80000223192203210120FFF7E0FB70BD1E485C
:100B90001C38008800F0010070B31B481C38008826
:100BA00020F0010018491C39088018480068401CD2
:100BB00016490860012819DD002008601448006803
:100BC000401C134908600846006812490860104834
:100BD00000681E280ADD00200D4908600E480068E4
:100BE00008B9012000E000200B4908600A480068AD
:100BF00018B100200949086002E007200749086091
:100C000000207047001002402C2C0140940000206E
:100C1000880000208C000020980000209000002018
:100C20002DE9F04704460D4617461E46DDF8209094
:100C30004FF0000814B10DB107B116B90120BDE89D
:100C4000F087601EC4B2681EC5B2781EC7B2701E9F
:100C500086B2FE48806940F00400FC498861FC4887
:100C6000006820F47F20FA4908600846006840F4D4
:100C700038200860F6480830006840F4C050F44955
:100C800008310860F148C06940F00070EF49C86160
:100C90000020F04908600846006840F00100086044
:100CA00008E008F101001FFA80F8B8F1640F01DDD7
:100CB0000220C4E7E748001D006800F0010000289A
:100CC000EFD0E4480068E34908600846006808601F
:100CD0000846006808600846006840F01000086098
:100CE0000846006808600846006808600020D94986
:100CF0001C3108600846006840EA897008600846B0
:100D0000006840EA046008600846006840EA055050
:100D100008600846006840EA074008600846006826
:100D200030430860CB48006820F00100C9490860E2
:100D300009E008F101001FFA80F84FF6F0708045D5
:100D400001DD03207BE7C348001D006800F00100BF
:100D50000028EED1C048006840F00100BE4908609C
:100D6000BD481C30006820F00100BB491C31086000
:100D7000B9480C30006840F00100B7490C310860F8
:100D8000B548001D0068B449091D0860B248143018
:100D90000068B149143108600020AF494031086053
:100DA0000021AD4844300160AB481C30006840F081
:100DB0000100A9491C310860A74800680020A64925
:100DC0000860A4481430006840F00200A1491431C2
:100DD00008600223142200210120FFF7B7FA002047
:100DE0002DE7F0B505460E46059C9A480830006888
:100DF00000F0806008B1002111E0964808300068DA
:100E000000F0006008B1012109E092480830006854
:100E100000F0805008B1022101E0FF20F0BD002762
:100E20008D48803800EB011007601EB9C5F30A0534
:100E30006D0502E025F06045ED008748803800EB45
:100E4000011000682843844F803F07EB011738608A
:100E50008148803800EB0110006840EA86077E4830
:100E6000803800EB011007607B48803800EB0110F0
:100E7000006840EA42077848803800EB01100760BC
:100E800003F00F037448803800EB0110406820F035
:100E90000F077148803800EB011047606E488038BA
:100EA00000EB0110406818436B4F803F07EB0117C0
:100EB0007860E0790006A77940EA0740677940EA60
:100EC0000727207907436448803800EB0110C7608A
:100ED000E0780006A77840EA0740677840EA0720F4
:100EE000277838435C4F803F07EB0117B8605A48BA
:100EF000803800EB0110006840F001075648803848
:100F000000EB01100760084688E70146002021B188
:100F1000012916D002293CD127E04E4A0832126836
:100F200002F0010210434B4A0832126802F002023A
:100F30001043484A0832126802F0806240EA1260A8
:100F400029E0444A0832126802F001021043414A83
:100F50000832126802F0020210433E4A0832126858
:100F600002F0006240EA526015E03A4A0832126824
:100F700002F001021043374A0832126802F00202FE
:100F80001043344A0832126802F0805240EA9260FC
:100F900001E0052000BF00BF7047014629B92D4878
:100FA0000C30006800F003007047012905D1294882
:100FB0001030006800F00300F6E70020F4E7F0B519
:100FC000DDE90554244E503E06EB0016366806F067
:100FD0000406167016783EB91F4E503E06EB0016FA
:100FE0003668760D0E6006E01B4E503E06EB00168E
:100FF0003668F6080E60184E503E06EB001636684E
:1010000006F002061E70144E503E06EB001676687F
:1010100006F00F062E70104E503E06EB0016B66816
:1010200026700D4E503E06EB0016B668360A667006
:10103000094E503E06EB0016B668360CA670064EFA
:10104000503E06EB0016B668360E07E00010024070
:10105000040801400064004000660040E6707C4ED9
:1010600006EB0016F6682671794E06EB0016F66858
:10107000360A6671764E06EB0016F668360CA671D7
:10108000734E06EB0016F668360EE67130B9714EF7
:10109000366846F020066F4F3E6009E0012807D110
:1010A0006C4E361D366846F020066A4F3F1D3E6086
:1010B000F0BD10B586B0684802A903AB04AACDE91B
:1010C000001005A90020FFF77AFF40F201110598F2
:1010D00088420AD1002405E05F48005D5F49085559
:1010E000601CC4B2082CF7DB21E00598B0F5817FC5
:1010F0000CD1082407E0A4F108005749085C5749BF
:101100000855601CC4B2102CF5DB10E040F203114E
:10111000059888420BD1102407E0A4F110004E4935
:10112000085C4E490855601CC4B2182CF5DB002041
:101130004B49086006B010BDF8B505460E460024C0
:1011400033460022114640F201600095FFF749FE48
:10115000074601E0601C84B23846FFF7D6FE072838
:1011600003D040F6FF708442F4DB40F6FF70844207
:1011700001DB0120F8BD0020FCE710B586B0044675
:101180000020FFF70AFF10B9002006B010BD02A82A
:1011900003AB04AA05A9CDE900040020FFF70FFF67
:1011A0000598122805D19DF8100010B99DF80C0083
:1011B00008B1002002909DF80800E6E7F8B5054662
:1011C0000E46002433460022114640F2017000957D
:1011D000FFF707FE074601E0601C84B23846FFF7C0
:1011E00094FE072803D040F6FF708442F4DB40F6FB
:1011F000FF70844201DB0120F8BD0020FCE7F8B558
:1012000006460D460024082300221146304600956C
:10121000FFF7E7FD074601E0601C84B23846FFF7A0
:1012200074FE072803D040F6FF708442F4DB40F6DA
:10123000FF70844201DB0120F8BD0020FCE730B5DF
:1012400004460D4629462046FFF7D9FF30BD000071
:10125000B06500400C64004055000020B80000203C
:10126000900121427047704770477047704775463C
:1012700000F02CF8AE4605006946534620F0070002
:10128000854618B020B5FEF791FFBDE820404FF02D
:1012900000064FF000074FF000084FF0000B21F060
:1012A0000701AC46ACE8C009ACE8C009ACE8C0092D
:1012B000ACE8C0098D46704710B50446AFF3008016
:1012C0002046BDE81040FEF758BF000000487047B8
:1012D000D000002090EA010F48BF81F0004100F1EA
:1012E0002E82421A3CBF801A89184FEAD0524FF022
:1012F0007F4C1CEA410FA2EBD15318BF9CEA026F4E
:1013000000F03B804FF0004C4CEA00204CEA0121F9
:1013100021FA03FC10EB0C0C1ED202F1FF325FEA43
:101320001C2040EBC25038BF70471CF07F0F4FEAC3
:10133000400C18BFBCF17F4F38BF7047C3F120038A
:10134000994008BF20F00100BCF17F4F38BF7047C3
:10135000A0F1C04000F0DDB94FEA3C00000A40EBCC
:10136000C25028BF1CF0FF0F4FEA400CE6D018BF58
:10137000BCF17F4F38BF7047EAE79CEA026F05D0A7
:1013800010EA5C0F08BF00F00040704710B500F095
:101390007AF900BF64FBBE3E4FF47F0C1CEAD0120A
:1013A0001EBF1CEAD11392EA0C0F93EA0C0F00F057
:1013B000858090EA010F48BF42F4807240F4000C2F
:1013C00041F400002CF07F4120F07F4000B58142C5
:1013D000A2EB03020FF2081CACEB504EC0F1000070
:1013E0009EF800E04FEA4E0E00FB0EFC38BF4900AD
:1013F0004FEA2C1C02F5FA020CFB0EF34FEACE1E4C
:101400004FEA112C4FEAC1210EEB635E42EB224200
:101410000EFB0CFC4FEA1C5300FB03114FEA112C8E
:101420004FEA01310EFB0CFC4FEADC4C00FB0C11C7
:10143000C14228BF09184CEB03335DF804EB10EBF5
:10144000410143EBC250B2F57C0F38BF704729D53C
:1014500012F0F00F1CBF00F1C04000F000407047D8
:10146000008182838485868788898B8C8D8E8F917D
:101470009293959697999A9C9D9FA0A2A3A5A7A8A1
:10148000AAACAEB0B2B3B5B7B9BCBEC0C2C5C7C9CD
:10149000CCCED1D4D7D9DCDFE2E6E9ECF0F3F7FA31
:1014A000FE0000004FEA400C0CF1807CBCF17E4F46
:1014B00028BF7047B0F1C04000F02BB990EA010F8F
:1014C0000CEAD11348BF42F48072624538BF6345CD
:1014D00007D213F47F0F16D080EA010000F000401D
:1014E000704710B500F0CFF8097EFC3E00F005B85B
:1014F00080EA010000F00040704780EA010000F03F
:10150000004000F006B912F47F0F04BF0248704794
:1015100080EA010000F0FDB80000C07FC10DD1F1EC
:101520009E0206DB4FEA002343F0004323FA02F059
:101530007047004207D54FEA4001B1F1FE4F02D299
:101540004FF00000704710B500F09DF849922480DC
:10155000002070476FEA200070470000B0FA80F367
:1015600010FA03F2C3F19D030AD0D90501EB122052
:10157000530638BF704700F1010008BF20F001009A
:10158000704700004FF47F0C1CEAD0121EBF1CEA0B
:10159000D11392EA0C0F93EA0C0F00F0478090EA07
:1015A000010F48BF42F480724FF0004C4CEA00201B
:1015B0004CEA012102EB0302A0FB0113A2F5000299
:1015C000002918BF43F001035B0028BF4FEA330333
:1015D00042EB22425FEA132C4CEBC2502EBFBCEB15
:1015E000436FB2F57C0F70474FEA036CBCF1004FBC
:1015F00008BF20F00100B2F57C0F38BF70470BD553
:1016000082F0FF0212F5803FC8BF704700F1C04072
:10161000D8BF00F00040704700F5000C5FEA4C0CAA
:1016200048BF7047B0F1C04000F073B890EA010FB6
:101630000CEAD11348BF42F48072624538BF63455B
:1016400004D280EA010000F00040704710B500F0BD
:101650001AF800BF8900013E00F007B800F009B891
:101660005FEA410C5FEA1C6C08D080EA010000F0E0
:1016700050B85FEA400C5FEA1C6CF6D14FF00040B6
:10168000A0F5800070470EF1020E2EF0030E5EF8FA
:10169000044B244204D44FEA4102B2F17F4F11D8E7
:1016A0004FEA4003B3F17F4F0CD80ED14FEAD07C04
:1016B000B2F17F4F0CEB4C0C0CF1020C08BF4CEB61
:1016C000D17C04E04FF0080C01E04FEAD17C0CEB38
:1016D0004C0324FA03F404F00704B4F1040C06D21A
:1016E0000EEB840CBDE810404CF0010C6047DFE8C5
:1016F0000CF0070802024FF00040A0F5800010BD7A
:101700000846420018BFD2F1807288BF00F0004046
:1017100010BDFF2141EAD050C005704780F0004065
:1017200090EA010F7FF5DDAD81F0004100F007B8D0
:1017300090EA010F48BF81F000413FF5D2AD421A57
:1017400004D882F00042A0EB020011444FEAD052CC
:101750004FF07F4C1CEA410FA2EBD15318BF9CEA1B
:10176000026F4AD04FF0004C4CEA00204CEA0121B5
:1017700021FA03FCB0EB0C0C0FD412F0FE0F36D0A4
:101780005FEA4C001DD5001240EBC25038BF7047D5
:101790001CF03F0F18BF70470BE0A2F101025FEA97
:1017A0001C2040EBC25038BF70471CF07F0F18BFA1
:1017B0007047C3F12003994014BF401E20F0010080
:1017C000704780084FEA122308BF7047B0FA80FCC8
:1017D000A2EB0C02CCF1280C60FA0CF093EA122F69
:1017E00004BF00EBC25070474FEAC3707047130A42
:1017F0005FEADC1008BF7047F6E79CEA026F04D08E
:1018000010EA5C0F08BF0020704710B5FFF73BFFE0
:1018100040DFF63E81F00040704700003C180008B1
:1018200000000020B800000028010008F41800089B
:10183000B800002078060000440100080100000004
:101840000000010000000000000000000000000097
:101850000000000000000000000000000000000088
:101860000000000000000000000000000000000078
:101870000000000000000000000000000000000068
:101880000000000000000000000000001E0000003A
:101890000000000000000000000000000000000048
:1018A0000000000000000000000000000000000038
:1018B0000000000000000000000000000000000028
:1018C0000000000000000000000000000000000018
:1018D00000000000000000000A0C0F13181E250075
:1018E0000B0D1014191F263200000000000000002C
:0418F00000000000F4
:04000005080000ED02
:00000001FF
